:020000040800F2
:10000000005000206D0F0008A50E0008AB0E000880
:10001000B10E0008B70E0008BD0E00080000000079
:10002000000000000000000000000000C30E0008F7
:10003000CF0E000800000000DB0E0008E70E0008ED
:10004000B50F0008B50F0008B50F0008B50F000880
:10005000B50F0008B50F0008B50F0008B50F000870
:10006000B50F0008B50F0008B50F0008B50F000860
:10007000B50F0008B50F0008B50F0008B50F000850
:10008000B50F0008B50F0008B50F0008B50F000840
:10009000B50F0008B50F0008B50F0008B50F000830
:1000A000B50F0008B50F0008B50F0008B50F000820
:1000B000B50F0008B50F0008B50F0008B50F000810
:1000C000B50F0008B50F0008B50F0008B50F000800
:1000D000B50F0008B50F0008B50F0008B50F0008F0
:1000E000B50F0008B50F0008B50F000800000000AC
:1000F0000000000000000000000000000000000000
:0C01000000000000000000005FF808F1A3
:10010C0010B5054C237833B9044B13B10448AFF345
:10011C0000800123237010BDDC00002000000000D3
:10012C000037000808B5034B1BB103490348AFF374
:10013C00008008BD00000000E0000020003700082F
:10014C0080B584B000AF78607B681B79FB737B68EB
:10015C005B79BB73FB7B0F2B0DD87B681B68BA7B61
:10016C00F97B184600F00BF87B689B791946786888
:10017C0000F04AF800E000BF1037BD4680BD80B4E7
:10018C0083B000AF78600B46FB701346BB70FB78F6
:10019C000F2B34D8FB78072B15D87B681B68FA78A3
:1001AC0092000F2101FA02F2D2431A407B681A60C6
:1001BC007B681B68B978FA78920001FA02F21A434C
:1001CC007B681A601CE0FB780F2B19D8FB78083B76
:1001DC00FB707B685B68FA7892000F2101FA02F2DF
:1001EC00D2431A407B685A607B685B68B978FA78AE
:1001FC00920001FA02F21A437B685A6000E000BFD9
:10020C000C37BD4680BC704780B483B000AF7860BB
:10021C000B46FB707B681B790F2B16D8FB78012BD8
:10022C0009D17B681B791A46012303FA02F27B6819
:10023C001B681A610AE07B681B791A46012303FAD2
:10024C0002F27B681B685A6100E000BF0C37BD46A8
:10025C0080BC704780B483B000AF78607B681B793A
:10026C000F2B01D9002309E07B681B689B687A6817
:10027C001279D340DBB203F00103DBB218460C3722
:10028C00BD4680BC7047000080B584B000AF78607C
:10029C00FF23FB730023BB7343E000237B730AE053
:1002AC007B7BDB007A68134401211846FFF7ACFF17
:1002BC007B7B01337B737B7B032BF1D9BB7BDB001B
:1002CC007A68134400211846FFF79EFF00233B7306
:1002DC0021E03B7B0433DB007A6813441846FFF7BC
:1002EC00B9FF0346002B13D100BF3B7B0433DB006B
:1002FC007A6813441846FFF7ADFF0346002BF4D081
:10030C00BA7B3B7B0B4992000A4413441B78FB736A
:10031C003B7B01333B733B7B032BDAD9BB7B013338
:10032C00BB73BB7B032BB8D9FB7B18461037BD4680
:10033C0080BD00BFA837000880B584B000AF7860DE
:10034C000023FB737B68002B5ED07B6802225A7102
:10035C007B6802225A737B6802225A757B680022E2
:10036C009A717B6800229A737B6800229A757B686D
:10037C001846FFF7E5FE7B6808331846FFF7E0FEEA
:10038C007B6810331846FFF7DBFE0023FB7318E085
:10039C00FB7B7A680333DB00134402225A71FB7B2C
:1003AC007A680333DB00134400229A71FB7B03331E
:1003BC00DB007A6813441846FFF7C2FEFB7B01335F
:1003CC00FB73FB7B032BE3D9142000F051FE33218C
:1003DC00786800F01DF83221786800F019F82821AF
:1003EC00786800F015F80C21786800F011F80621F7
:1003FC00786800F00DF88021786800F009F8012188
:10040C00786800F005F800E000BF1037BD4680BDED
:10041C0080B582B000AF78600B46FB707B68002B18
:10042C001DD07B6800211846FFF7EEFE7B68083371
:10043C0000211846FFF7E8FEFB781B09DBB21946D2
:10044C00786800F0DFF8786800F018F9FB78194646
:10045C00786800F0D7F8786800F010F900E000BF79
:10046C000837BD4680BD80B582B000AF78600B46C2
:10047C00FB707B68002B1DD07B6801211846FFF7B1
:10048C00C3FE7B68083300211846FFF7BDFEFB78DE
:10049C001B09DBB21946786800F0B4F8786800F0F4
:1004AC00EDF8FB781946786800F0ACF8786800F045
:1004BC00E5F800E000BF0837BD4680BD80B582B0CE
:1004CC0000AF7860084611461A460346FB700B468F
:1004DC00BB7013467B707B68002B0BD0BA78FB7813
:1004EC001946786800F0F2F87B7819467868FFF7BF
:1004FC00BAFF00E000BF0837BD4680BD80B584B0B0
:10050C0000AFF8607B600B46FB721346BB72FB6856
:10051C00002B13D0BA7AFB7A1946F86800F0D6F89B
:10052C0007E07B685A1C7A601B781946F868FFF75D
:10053C009AFF7B681B78002BF3D100E000BF1037CB
:10054C00BD4680BD80B582B000AF7860012178686F
:10055C00FFF75EFF00BF0837BD4680BD80B586B093
:10056C0000AF78600B46FB701346BB70BB78013B49
:10057C00BB700023FB757B68002B21D1BA78F9780E
:10058C0030231E48FFF79AFF34E079681C4BA3FB1D
:10059C000123DA0813469B0013445B00CA1AD2B23B
:1005AC00FB7D3032D2B218333B4403F80C2C7B6801
:1005BC00134AA2FB0323DB087B60FB7D0133FB7535
:1005CC007B68002BE1D1FB7DBB7510E0BB78013360
:1005DC00BB70BB7D013B18333B4413F80C3CBA7821
:1005EC00F9780648FFF76AFFBB7D013BBB75BB7D05
:1005FC00002BEBD100BF1837BD4680BD400000205A
:10060C00CDCCCCCC80B582B000AF78600B46FB7003
:10061C007B6803F11802FB7803F00103DBB2194687
:10062C001046FFF7F1FD7B6803F12002FB785B08B5
:10063C00DBB203F00103DBB219461046FFF7E4FD11
:10064C007B6803F12802FB789B08DBB203F0010303
:10065C00DBB219461046FFF7D7FD7B6803F1300279
:10066C00FB78DB08DBB203F00103DBB21946104662
:10067C00FFF7CAFD00BF0837BD4680BD80B584B00A
:10068C0000AF78607B68103301211846FFF7BCFD82
:10069C000023FB7302E0FB7B0133FB73FB7B092B19
:1006AC00F9D97B68103300211846FFF7ADFD002304
:1006BC00BB8102E0BB890133BB81BB89B3F5FA6F07
:1006CC00F8D300BF00BF1037BD4680BD80B582B0E7
:1006DC0000AF78600B46FB701346BB70BB78013BD8
:1006EC00BB70FB78013B032B2AD801A252F823F0F4
:1006FC000D0700081D0700082D0700083D0700081E
:10070C00BB78803BDBB219467868FFF781FE17E0B7
:10071C00BB78403BDBB219467868FFF779FE0FE0F7
:10072C00BB786C3BDBB219467868FFF771FE07E0CB
:10073C00BB782C3BDBB219467868FFF769FE00BF2B
:10074C0000BF0837BD4680BD80B483B000AF034600
:10075C000A46FB711346BB71FB79022B1CD0022B92
:10076C0025DC002B02D0012B0BD020E0134B5B6956
:10077C00BA79012101FA02F21146104A0B43536176
:10078C0016E00E4BDB69BA79012101FA02F211462F
:10079C000A4A0B43D3610BE0084B9B69BA790121E0
:1007AC0001FA02F21146054A0B43936100E000BFC7
:1007BC0000BF0C37BD4680BC704700BF0010024024
:1007CC0080B588B000AF07F1100300221A605A60A0
:1007DC009A60DA602A4B9B69294A43F010039361B3
:1007EC00274B9B6903F01003FB60FB68244B9B6950
:1007FC00234A43F020039361214B9B6903F02003B0
:10080C00BB60BB681E4B9B691D4A43F0040393619C
:10081C001B4B9B6903F004037B607B68184B9B6943
:10082C00174A43F008039361154B9B6903F00803C7
:10083C003B603B6800224FF4F051124800F0A4FEDC
:10084C004FF4F0533B6101237B610023BB61022316
:10085C00FB6107F1100319460A4800F011FD7823DB
:10086C003B6100237B610123BB6107F11003194637
:10087C00054800F005FD00BF2037BD4680BD00BF18
:10088C000010024000080140000C014080B582B00D
:10089C0000AF154B1B78DBB23B71144B1B78DBB2F2
:1008AC007B71134B1B78DBB2BB713B1D01221946CC
:1008BC00104801F09FFC02233B7008237B7012232D
:1008CC00BB700023FB703B4601221946094801F01E
:1008DC0001FE43F2F2220121064802F03FFA00BF6A
:1008EC000837BD4680BD00BF1801002079000020EC
:1008FC007A0000203001002080B582B000AF0023C8
:10090C007B6010E00C4A7B6832F8133018460B4AB7
:10091C007B6832F81330DBB21A460121FFF71EFE5A
:10092C007B6801337B607B68012BEBDD00BF00BF74
:10093C000837BD4680BD00BF240100207C0000208C
:10094C0080B582B000AF00237B601FE0304A7B682B
:10095C009B0013445B885A1E2E4B1B689A4212D183
:10096C002D4B1B68002B0ED12C4A7B6832F81330B0
:10097C00013B99B2294A7B6822F81310264B0122BD
:10098C001A60FFF7B9FF7B6801337B607B68012B32
:10099C00DCDD1F4B5B881A461E4B1B689A420AD043
:1009AC001B4BDB881A461B4B1B689A4203D0194B16
:1009BC001B68012B02D1184B00221A60154B1B68C7
:1009CC003B2B12D1144B1B68002B0ED1144B1B6804
:1009DC000133134A1360104B01221A60104B1B6831
:1009EC00012201211846FFF7B9FD0E4B1B680522A9
:1009FC0001211846FFF7B2FD064B1B6805220221A8
:100A0C001846FFF7ABFD00BF0837BD4680BD00BFE1
:100A1C001C010020100100202C01002024010020CA
:100A2C00280100201401002080B584B002AF3B46A1
:100A3C0000221946164801F075FC3B1D0022194690
:100A4C00134801F0FDFDBB781A46124B1A607B78F7
:100A5C001A46114B1A603B781A467B781946BB78BC
:100A6C0000930B460D490E4802F092F9BB791A46D9
:100A7C007B791946FB7903F5FA6300930B46094918
:100A8C00094802F085F900BF0837BD4680BD00BF9C
:100A9C00300100201001002014010020183700083C
:100AAC00F8000020283700080401002080B582B02F
:100ABC0000AF0023FB801A4BFF221A7024E0194868
:100ACC00FFF7E2FB03461A46154B1A70144B1B78C2
:100ADC002F2B19D9124B1B78392B15D8104B1B788F
:100AEC0019461148FFF7BFFC0D4B1B789AB2FB88D7
:100AFC00194689000B445B009BB213449BB2303BFC
:100B0C00FB80074BFF221A70054B1B782A2BD6D182
:100B1C00034BFF221A70FB8818460837BD4680BD70
:100B2C0078000020000000204000002080B582B03A
:100B3C0000AF00F03BFA00F095F8FFF741FE00F033
:100B4C00F1F802210220FFF7FFFD03210220FFF73D
:100B5C00FBFD3A48FFF7F0FB3848FFF7F3FC384B46
:100B6C00022201213548FFF7C9FCFFF79FFF03461E
:100B7C001A46344B1A803148FFF7E4FC324B022200
:100B8C0001212E48FFF7BAFCFFF790FF03461A46E7
:100B9C002C4B5A802948FFF7D5FC2C4B0222012103
:100BAC002648FFF7ABFCFFF781FF03461A46254B9F
:100BBC009A802248FFF7C6FC254B022201211F48D0
:100BCC00FFF79CFCFFF772FF03461A461D4BDA80B9
:100BDC001A48FFF7B7FC1F4B022201211748FFF7F9
:100BEC008DFCFFF763FF03461A461B4B1A80134814
:100BFC00FFF7A8FC194B022201211048FFF77EFCDD
:100C0C00FFF754FF03461A46134B5A800B48FFF765
:100C1C0099FCFFF73BFEFFF76FFE114B1B6801229F
:100C2C0001211846FFF79AFC1623FB71FFF7FCFE17
:100C3C00FFF786FE642000F01BFAF7E74000002067
:100C4C00383700081C0100204437000850370008D2
:100C5C005C3700086837000824010020783700084A
:100C6C002801002080B594B000AF07F1280328229A
:100C7C000021184602F0ACF807F1140300221A60A8
:100C8C005A609A60DA601A613B1D00221A605A6041
:100C9C009A60DA600123BB624FF48033FB6200235D
:100CAC003B630123BB6302237B644FF48033BB643F
:100CBC004FF4E013FB6407F12803184600F088FC9E
:100CCC000346002B01D000F028F80F237B61022390
:100CDC00BB610023FB614FF480633B6200237B62AA
:100CEC0007F114030221184600F0F4FE0346002B12
:100CFC0001D000F012F801237B604FF44073BB600D
:100D0C003B1D184601F06AF80346002B01D000F099
:100D1C0004F800BF5037BD4680BD80B400AF72B63A
:100D2C0000BFFEE780B584B000AF07F10C030021D3
:100D3C000A461A800A469A700023BB603B46002282
:100D4C001A605A60274B284A1A60264B4FF0FF3224
:100D5C005A60244B4FF480729A60224801F0B4F927
:100D6C000346002B01D0FFF7D8FF00233B73002371
:100D7C007B730023BB7307F10C030122194619483E
:100D8C0001F038FA0346002B01D0FFF7C6FF012310
:100D9C003B7201237B720123BB720023FB7207F1B0
:100DAC000803012219460F4801F094FB0346002B5F
:100DBC0001D0FFF7B2FF00233B7000237B700023B0
:100DCC00BB7000237B603B4601221946054801F0AD
:100DDC008BFC0346002B01D0FFF79FFF00BF1037A1
:100DEC00BD4680BD300100200028004080B584B095
:100DFC0000AF78607B681B680B4A934210D100F0FF
:100E0C00DBFB0A4BDB69094A43F00063D361074BF8
:100E1C00DB6903F00063FB60FB68054B01221A6081
:100E2C0000BF1037BD4680BD0028004000100240B6
:100E3C003C04424280B485B000AF154B9B69144A08
:100E4C0043F001039361124B9B6903F00103BB60F8
:100E5C00BB680F4BDB690E4A43F08053D3610C4BDC
:100E6C00DB6903F080537B607B680A4B5B68FB603B
:100E7C00FB6823F0E063FB60FB6843F00073FB60EE
:100E8C00044AFB68536000BF1437BD4680BC7047F2
:100E9C00001002400000014080B400AFFEE780B4B7
:100EAC0000AFFEE780B400AFFEE780B400AFFEE712
:100EBC0080B400AFFEE780B400AF00BFBD4680BC7D
:100ECC00704780B400AF00BFBD4680BC704780B493
:100EDC0000AF00BFBD4680BC704780B500AF00F0CE
:100EEC00ABF800BF80BD000080B586B000AF786065
:100EFC00144A154BD31A7B617B693B61134B1B68FE
:100F0C00002B02D1114B124A1A60104B1A687B68E5
:100F1C0013443A699A4207D201F062FF03460C224D
:100F2C001A604FF0FF3309E0084B1B68FB60074B5E
:100F3C001A687B681344054A1360FB681846183717
:100F4C00BD4680BD0050002000040000440100207C
:100F5C009802002080B400AF00BFBD4680BC704733
:100F6C000C480D490D4A002302E0D458C4500433F8
:100F7C00C4188C42F9D30A4A0A4C002301E01360CE
:100F8C000432A242FBD3FFF7E5FF01F02FFFFFF77E
:100F9C00CDFD704700000020DC0000200C3800085C
:100FAC00DC00002094020020FEE7000080B500AFBA
:100FBC00084B1B68074A43F010031360032000F032
:100FCC002BF90F2000F008F8FFF734FF0023184628
:100FDC0080BD00BF0020024080B582B000AF7860B9
:100FEC00124B1A68124B1B7819464FF47A73B3FBE9
:100FFC00F1F3B2FBF3F3184600F035F90346002B7E
:10100C0001D001230EE07B680F2B0AD800227968EF
:10101C004FF0FF3000F00BF9064A7B681360002399
:10102C0000E0012318460837BD4680BD8000002033
:10103C00880000208400002080B400AF054B1B7892
:10104C001A46054B1B681344034A136000BFBD4688
:10105C0080BC7047880000204801002080B400AF9D
:10106C00024B1B681846BD4680BC704748010020E7
:10107C0080B584B000AF7860FFF7F0FFB8607B6894
:10108C00FB60FB68B3F1FF3F05D00A4B1B781A4697
:10109C00FB681344FB6000BFFFF7E0FF0246BB6830
:1010AC00D31AFA689A42F7D800BF00BF1037BD4672
:1010BC0080BD00BF8800002080B485B000AF786090
:1010CC007B6803F00703FB600C4BDB68BB60BA6802
:1010DC004FF6FF031340BB60FB681A02BB68134357
:1010EC0043F0BF6343F40033BB60044ABB68D36076
:1010FC0000BF1437BD4680BC704700BF00ED00E058
:10110C0080B400AF044BDB681B0A03F007031846DE
:10111C00BD4680BC704700BF00ED00E080B483B0DA
:10112C0000AF03463960FB7197F90730002B0ADBDF
:10113C003B68DAB20C4997F907301201D2B20B4472
:10114C0083F800230AE03B68DAB20849FB7903F024
:10115C000F03043B1201D2B20B441A7600BF0C37BA
:10116C00BD4680BC704700BF00E100E000ED00E030
:10117C0080B489B000AFF860B9607A60FB6803F0A6
:10118C000703FB61FB69C3F10703042B28BF04238E
:10119C00BB61FB690433062B02D9FB69033B00E0FE
:1011AC0000237B614FF0FF32BB6902FA03F3DA4391
:1011BC00BB681A407B699A404FF0FF317B6901FA9A
:1011CC0003F3D9437B680B40134318462437BD46C1
:1011DC0080BC704780B582B000AF78607B68013B03
:1011EC00B3F1807F01D301230FE00A4A7B68013BF6
:1011FC0053600F214FF0FF30FFF790FF054B00229B
:10120C009A60044B07221A60002318460837BD4623
:10121C0080BD00BF10E000E080B582B000AF786008
:10122C007868FFF749FF00BF0837BD4680BD80B521
:10123C0086B000AF0346B9607A60FB7300237B6114
:10124C00FFF75EFF78617A68B9687869FFF790FFFD
:10125C00024697F90F3011461846FFF75FFF00BFA3
:10126C001837BD4680BD80B582B000AF7860786815
:10127C00FFF7B0FF034618460837BD4680BD000097
:10128C0080B48BB000AF7860396000237B620023A0
:10129C003B6269E101227B6A02FA03F3FB613B6862
:1012AC001B68FA691340BB61BA69FB699A4240F04A
:1012BC0058813B685B689A4A93425ED0984A934245
:1012CC0075D8984A934258D0964A93426FD8964A0A
:1012DC00934252D0944A934269D8944A93424CD048
:1012EC00924A934263D8924A934246D0904A934290
:1012FC005DD8122B2AD8122B59D801A252F823F000
:10130C00871300086113000873130008B513000855
:10131C00BB130008BB130008BB130008BB13000869
:10132C00BB130008BB130008BB130008BB13000859
:10133C00BB130008BB130008BB130008BB13000849
:10134C00BB130008691300087D130008794A934207
:10135C0013D02CE03B68DB683B6229E03B68DB6820
:10136C0004333B6224E03B68DB6808333B621FE0DC
:10137C003B68DB680C333B621AE03B689B68002BD4
:10138C0002D104233B6213E03B689B68012B05D11F
:10139C0008233B627B68FA691A6109E008233B6207
:1013AC007B68FA695A6103E000233B6200E000BFEE
:1013BC00BB69FF2B01D87B6801E07B6804337B6140
:1013CC00BB69FF2B02D87B6A9B0002E07B6A083B5F
:1013DC009B003B617B691A680F213B6901FA03F39F
:1013EC00DB431A40396A3B6901FA03F31A437B6900
:1013FC001A603B685B6803F08053002B00F0B180EF
:10140C004D4B9B694C4A43F0010393614A4B9B69DA
:10141C0003F00103BB60BB68484A7B6A9B0802333C
:10142C0052F82330FB607B6A03F003039B000F220E
:10143C0002FA03F3DB43FA681340FB607B68404A13
:10144C00934213D07B683F4A93420DD07B683E4A4F
:10145C00934207D07B683D4A934201D1032306E0B7
:10146C00042304E0022302E0012300E000237A6A53
:10147C0002F0030292009340FA681343FB602F4979
:10148C007B6A9B080233FA6841F823203B685B684F
:10149C0003F48033002B06D02D4B1A682C49BB6902
:1014AC0013430B6006E02A4B1A68BB69DB432849DF
:1014BC0013400B603B685B6803F40033002B06D0D1
:1014CC00234B5A682249BB6913434B6006E0204BFF
:1014DC005A68BB69DB431E4913404B603B685B6831
:1014EC0003F48013002B06D0194B9A681849BB697A
:1014FC0013438B6006E0164B9A68BB69DB431449B7
:10150C0013408B603B685B6803F40013002B21D005
:10151C000F4BDA680E49BB691343CB6021E000BF67
:10152C0000003210000031100000221000002110C9
:10153C0000001210000011100010024000000140C9
:10154C0000080140000C0140001001400014014053
:10155C00000401400B4BDA68BB69DB4309491340BB
:10156C00CB607B6A01337B623B681A687B6A22FA28
:10157C0003F3002B7FF48EAE00BF00BF2C37BD46AB
:10158C0080BC70470004014080B483B000AF786029
:10159C000B467B8013467B707B78002B03D07A88BC
:1015AC007B681A6103E07B881A047B681A6100BFB0
:1015BC000C37BD4680BC704780B400AF034B012292
:1015CC001A6000BFBD4680BC704700BF20000E42B1
:1015DC0080B586B000AF78607B68002B01D1012309
:1015EC0072E27B681B6803F00103002B00F087801C
:1015FC00924B5B6803F00C03042B0CD08F4B5B6895
:10160C0003F00C03082B12D18C4B5B6803F4803372
:10161C00B3F5803F0BD1894B1B6803F40033002BCF
:10162C006CD07B685B68002B68D101234CE27B6833
:10163C005B68B3F5803F06D1804B1B687F4A43F44F
:10164C00803313602EE07B685B68002B0CD17B4BE6
:10165C001B687A4A23F480331360784B1B68774AF3
:10166C0023F4802313601DE07B685B68B3F5A02F27
:10167C000CD1724B1B68714A43F4802313606F4B7F
:10168C001B686E4A43F4803313600BE06B4B1B6892
:10169C006A4A23F480331360684B1B68674A23F44F
:1016AC00802313607B685B68002B13D0FFF7D6FC9C
:1016BC00386108E0FFF7D2FC02463B69D31A642B71
:1016CC0001D9032300E25D4B1B6803F40033002BAC
:1016DC00F0D014E0FFF7C2FC386108E0FFF7BEFC65
:1016EC0002463B69D31A642B01D90323ECE1534B1B
:1016FC001B6803F40033002BF0D100E000BF7B68C3
:10170C001B6803F00203002B63D04C4B5B6803F0A7
:10171C000C03002B0BD0494B5B6803F00C03082B1C
:10172C001CD1464B5B6803F48033002B16D1434B22
:10173C001B6803F00203002B05D07B681B69012B8F
:10174C0001D00123C0E13D4B1B6823F0F8027B68FC
:10175C005B69DB00394913430B603AE07B681B691A
:10176C00002B20D0364B01221A60FFF777FC386132
:10177C0008E0FFF773FC02463B69D31A022B01D930
:10178C000323A1E12D4B1B6803F00203002BF0D0C7
:10179C002A4B1B6823F0F8027B685B69DB00274946
:1017AC0013430B6015E0264B00221A60FFF756FC22
:1017BC00386108E0FFF752FC02463B69D31A022B52
:1017CC0001D9032380E11D4B1B6803F00203002B9E
:1017DC00F0D17B681B6803F00803002B3AD07B68C0
:1017EC009B69002B19D0174B01221A60FFF736FCAE
:1017FC00386108E0FFF732FC02463B69D31A022B32
:10180C0001D9032360E10D4B5B6A03F00203002B4B
:10181C00F0D0012000F0C4FA1CE00A4B00221A6040
:10182C00FFF71CFC38610FE0FFF718FC02463B6920
:10183C00D31A022B08D9032346E100BF0010024043
:10184C000000424280044242924B5B6A03F0020366
:10185C00002BE9D17B681B6803F00403002B00F01C
:10186C00A6800023FB758B4BDB6903F08053002BA8
:10187C000DD1884BDB69874A43F08053D361854B8C
:10188C00DB6903F08053BB60BB680123FB75824BA3
:10189C001B6803F48073002B18D17F4B1B687E4AA6
:1018AC0043F480731360FFF7D9FB386108E0FFF74E
:1018BC00D5FB02463B69D31A642B01D9032303E100
:1018CC00754B1B6803F48073002BF0D07B68DB68CE
:1018DC00012B06D16F4B1B6A6E4A43F00103136256
:1018EC002DE07B68DB68002B0CD16A4B1B6A694AC4
:1018FC0023F001031362674B1B6A664A23F004034F
:10190C0013621CE07B68DB68052B0CD1614B1B6AF6
:10191C00604A43F0040313625E4B1B6A5D4A43F05A
:10192C00010313620BE05B4B1B6A5A4A23F0010361
:10193C001362584B1B6A574A23F0040313627B68EB
:10194C00DB68002B15D0FFF789FB38610AE0FFF745
:10195C0085FB02463B69D31A41F28832934201D986
:10196C000323B1E04B4B1B6A03F00203002BEED0B8
:10197C0014E0FFF773FB38610AE0FFF76FFB0246D8
:10198C003B69D31A41F28832934201D903239BE07D
:10199C00404B1B6A03F00203002BEED1FB7D012BA5
:1019AC0005D13C4BDB693B4A23F08053D3617B6808
:1019BC00DB69002B00F08780364B5B6803F00C036F
:1019CC00082B61D07B68DB69022B46D1334B00229C
:1019DC001A60FFF743FB386108E0FFF73FFB024654
:1019EC003B69D31A022B01D903236DE0294B1B68E9
:1019FC0003F00073002BF0D17B681B6AB3F5803FBA
:101A0C0008D1244B5B6823F400327B689B68214926
:101A1C0013434B601F4B5B6823F474127B68196A89
:101A2C007B685B6A0B431B4913434B601B4B0122C6
:101A3C001A60FFF713FB386108E0FFF70FFB024653
:101A4C003B69D31A022B01D903233DE0114B1B68D0
:101A5C0003F00073002BF0D035E0104B00221A601D
:101A6C00FFF7FCFA386108E0FFF7F8FA02463B6929
:101A7C00D31A022B01D9032326E0064B1B6803F073
:101A8C000073002BF0D11EE07B68DB69012B07D1C2
:101A9C00012319E000100240007000406000424237
:101AAC000B4B5B68FB60FB6803F480327B681B6A42
:101ABC009A4206D1FB6803F470127B685B6A9A4207
:101ACC0001D0012300E0002318461837BD4680BD25
:101ADC000010024080B584B000AF786039607B683C
:101AEC00002B01D10123D0E06A4B1B6803F00703E4
:101AFC003A689A4210D9674B1B6823F00702654974
:101B0C003B6813430B60634B1B6803F007033A6895
:101B1C009A4201D00123B8E07B681B6803F00203F2
:101B2C00002B20D07B681B6803F00403002B05D02E
:101B3C00594B5B68584A43F4E06353607B681B68FD
:101B4C0003F00803002B05D0534B5B68524A43F457
:101B5C0060535360504B5B6823F0F0027B689B68CA
:101B6C004D4913434B607B681B6803F00103002B4A
:101B7C0040D07B685B68012B07D1474B1B6803F493
:101B8C000033002B15D101237FE07B685B68022BAF
:101B9C0007D1414B1B6803F00073002B09D10123C3
:101BAC0073E03D4B1B6803F00203002B01D10123B2
:101BBC006BE0394B5B6823F003027B685B6836494A
:101BCC0013434B60FFF74AFAF8600AE0FFF746FA56
:101BDC000246FB68D31A41F28832934201D903239F
:101BEC0053E02D4B5B6803F00C027B685B689B0039
:101BFC009A42EBD1274B1B6803F007033A689A42D1
:101C0C0010D2244B1B6823F0070222493B68134374
:101C1C000B60204B1B6803F007033A689A4201D013
:101C2C00012332E07B681B6803F00403002B08D00F
:101C3C00194B5B6823F4E0627B68DB68164913433D
:101C4C004B607B681B6803F00803002B09D0124B18
:101C5C005B6823F460527B681B69DB000E491343FD
:101C6C004B6000F021F802460B4B5B681B0903F03C
:101C7C000F030A49CB5C22FA03F3094A1360094BA0
:101C8C001B681846FFF7A8F9002318461037BD4605
:101C9C0080BD00BF0020024000100240B837000891
:101CAC00800000208400002090B48AB000AF294B43
:101CBC003C1D0FCB84E80F0040F201233B80002336
:101CCC00FB610023BB6100237B6200237B6100234B
:101CDC003B62214B5B68FB61FB6903F00C03042B3B
:101CEC0002D0082B03D02BE01C4B3B622BE0FB6992
:101CFC009B0C03F00F0328333B4413F8243C7B610B
:101D0C00FB6903F48033002B12D0134B5B685B0C24
:101D1C0003F0010328333B4413F8283CBB617B6977
:101D2C000E4A03FB02F2BB69B2FBF3F37B6204E0E5
:101D3C007B690B4A02FB03F37B627B6A3B6202E02A
:101D4C00064B3B6200BF3B6A18462837BD4690BC29
:101D5C00704700BF883700080010024000127A005C
:101D6C0000093D0080B400AF024B1B681846BD460D
:101D7C0080BC70478000002080B500AFFFF7F2FFF9
:101D8C000246054B5B68DB0A03F007030349CB5C97
:101D9C0022FA03F3184680BD00100240C837000831
:101DAC0080B485B000AF78600A4B1B680A4AA2FB6E
:101DBC0003235B0A7A6802FB03F3FB6000BFFB683A
:101DCC005A1EFA60002BF9D100BF00BF1437BD4674
:101DDC0080BC704780000020D34D621080B586B067
:101DEC0000AF786000233B610023FB607B681B68BD
:101DFC0003F00103002B7DD00023FB754F4BDB69F7
:101E0C0003F08053002B0DD14C4BDB694B4A43F054
:101E1C008053D361494BDB6903F08053BB60BB68D3
:101E2C000123FB75464B1B6803F48073002B18D100
:101E3C00434B1B68424A43F480731360FFF70EF95F
:101E4C00386108E0FFF70AF902463B69D31A642BA4
:101E5C0001D903236DE03A4B1B6803F48073002B0C
:101E6C00F0D0364B1B6A03F44073FB60FB68002B0D
:101E7C002ED07B685B6803F44073FA689A4227D0D3
:101E8C002E4B1B6A23F44073FB602E4B01221A600D
:101E9C002C4B00221A60294AFB681362FB6803F082
:101EAC000103002B14D0FFF7D9F838610AE0FFF7D3
:101EBC00D5F802463B69D31A41F28832934201D9D4
:101ECC00032336E01D4B1B6A03F00203002BEED0FC
:101EDC001A4B1B6A23F440727B685B6817491343E7
:101EEC000B62FB7D012B05D1144BDB69134A23F0EC
:101EFC008053D3617B681B6803F00203002B08D06E
:101F0C000E4B5B6823F440427B689B680B49134380
:101F1C004B607B681B6803F01003002B08D0074B49
:101F2C005B6823F480027B68DB68044913434B60D5
:101F3C00002318461837BD4680BD00BF0010024074
:101F4C00007000404004424290B58DB000AF786004
:101F5C00584B07F10C040FCB84E80F0040F201231F
:101F6C003B8100237B620023FB6200233B62002346
:101F7C00FB610023BB627B68102B0AD07B68102BA3
:101F8C0000F28E807B68012B49D07B68022B79D0C4
:101F9C0086E0494B5B68FB61474B1B6803F0807321
:101FAC00002B7FD0FB699B0C03F00F0330333B44B9
:101FBC0013F8243C3B62FB6903F48033002B17D0ED
:101FCC003D4B5B685B0C03F0010330333B4413F86F
:101FDC00283C7B62FB6903F48033002B0DD0374A1D
:101FEC007B6AB2FBF3F23B6A02FB03F3FB6204E095
:101FFC003B6A334A02FB03F3FB622F4B5B6803F42F
:10200C008003B3F5800F02D1FB6ABB624AE0FB6A26
:10201C005B002C4AA2FB03235B08BB6242E0264B0D
:10202C001B6AFB61FB6903F44073B3F5807F08D135
:10203C00FB6903F00203002B03D04FF40043BB6297
:10204C001FE0FB6903F44073B3F5007F09D11A4B11
:10205C005B6A03F00203002B03D049F64043BB62DA
:10206C000FE0FB6903F44073B3F5407F1CD1124BB6
:10207C001B6803F40033002B16D04FF22443BB62D1
:10208C0012E011E0FFF778FE02460B4B5B689B0BEE
:10209C0003F0030301335B00B2FBF3F3BB6204E018
:1020AC0000BF02E000BF00E000BFBB6A1846343737
:1020BC00BD4690BD983700080010024000127A000F
:1020CC0000093D00ABAAAAAA80B584B000AF786025
:1020DC000023FB607B68002B01D1012384E07B682B
:1020EC005B7CDBB2002B05D17B6800221A7478680C
:1020FC00FEF77CFE7B6802225A74786800F08DFB38
:10210C000346002B04D07B6804225A7401236BE035
:10211C00786800F046FC0346002B04D07B68042250
:10212C005A74012360E07B681B685A687B681B68E3
:10213C0022F007025A607B689B68002B05D02C4B61
:10214C001B6B2B4A23F001031363294BDB6A23F42B
:10215C0060727B689B6826491343CB627B685B6823
:10216C00B3F1FF3F03D07B685B68FB600EE001209E
:10217C00FFF7EAFEF860FB68002B04D17B680422B1
:10218C005A74012330E0FB68013BFB607B681B68E1
:10219C009B6823F00F01FB681A0C7B681B680A43D1
:1021AC009A607B681B68DB681B0C1B04FA6891B295
:1021BC007A6812680B43D360786800F01AFC034607
:1021CC00002B04D07B6804225A7401230CE07B683A
:1021DC000022DA737B6801225A737B6801229A739E
:1021EC007B6801225A74002318461037BD4680BD07
:1021FC00006C004090B587B000AFF860B9607A60B1
:10220C0000237B6100233B61FB68002B02D0BB6881
:10221C00002B01D1012380E0FB681B7C012B01D139
:10222C0002237AE0FB6801221A74FB6802225A74BA
:10223C007B68002B13D1BB681B781A464FF4616383
:10224C0003FB02F2BB685B7819460B461B015B1A59
:10225C009B001344BA68927813447B611EE0BB6800
:10226C001B78184600F00AFC03461A464FF46163CB
:10227C0003FB02F4BB685B78184600F0FFFB0346D7
:10228C001A4613461B019B1A9B001C44BB689B7887
:10229C00184600F0F3FB034623447B617969F86828
:1022AC0000F018FB0346002B07D0FB6804225A747D
:1022BC00FB6800221A7401232FE0FB681B685A6824
:1022CC00FB681B6822F005025A60F86800F029FBD5
:1022DC0038613B69B3F1FF3F18D03A697B699A4288
:1022EC0014D23B6903F5A83303F5C0733B6139691C
:1022FC00F86800F02FFB0346002B07D0FB68042284
:10230C005A74FB6800221A74012306E0FB68012250
:10231C005A74FB6800221A74002318461C37BD46F9
:10232C0090BD000080B588B000AFF860B9607A60ED
:10233C000023BB610023FB6100237B6100233B6115
:10234C00FB68002B02D0BB68002B01D10123B5E048
:10235C00FB681B685B6803F00403002B01D00123AE
:10236C00ACE0F86800F086FAB861BB69554AA2FB8C
:10237C000323DB0A3B61BA69524BA3FB0213DB0A52
:10238C004FF4616101FB03F3D31A4F4AA2FB032301
:10239C005B09DAB2BB685A70BB694A4AA2FB0312EA
:1023AC00D20A4FF4616101FB02F29A1A464BA3FB6D
:1023BC00021359090B461B015B1A9B00D11ACAB2B6
:1023CC00BB689A703B69172B55D93B693F4AA2FBF6
:1023DC0003231B097B6139693C4BA3FB01231A09BD
:1023EC0013465B001344DB00CA1AD2B2BB681A70E6
:1023FC00F86800F096FAF861FB69B3F1FF3F08D07A
:10240C00FA69BB699A4204D9FA69BB69D31AFB61B0
:10241C0002E04FF0FF33FB617B692D4A02FB03F3B3
:10242C00BA69D31ABB61B969F86800F053FA03466C
:10243C00002B01D0012341E0FB69B3F1FF3F0CD02D
:10244C00FA69BB691344FB61F969F86800F082FA18
:10245C000346002B0AD0012330E0F969F86800F03C
:10246C0079FA0346002B01D0012327E07969F8683B
:10247C0000F021FB03E03B69DAB2BB681A707B68A1
:10248C00002B1AD0BB681B78184600F0DAFA03460A
:10249C001A46BB681A70BB685B78184600F0D1FA14
:1024AC0003461A46BB685A70BB689B78184600F006
:1024BC00C8FA03461A46BB689A70002318462037A0
:1024CC00BD4680BDC5B3A29189888888ABAAAAAA4B
:1024DC008051010080B588B000AFF860B9607A60B7
:1024EC000023FB610023BB6100237B61FB68002B95
:1024FC0002D0BB68002B01D1012397E0FB681B7C49
:10250C00012B01D1022391E0FB6801221A74FB68B4
:10251C0002225A747B68002B0CD1BB68DA78FB68FA
:10252C00DA73BB685A78FB685A73BB689A78FB6895
:10253C009A731AE0BB68DB78184600F09FFA0346E2
:10254C001A46FB68DA73BB685B78184600F096FA9B
:10255C0003461A46FB685A73BB689B78184600F012
:10256C008DFA03461A46FB689A73FB68DB7B1846A8
:10257C00FB68597BFB689B7B1A4600F077FB034694
:10258C001A46FB681A73FB681A7BBB681A70F868EA
:10259C0000F070F9F861FB69264AA2FB0323DB0A01
:1025AC007B617B69182B3AD97B69234AA2FB0323F5
:1025BC001B09224A02FB03F3FA69D31AFB61F9697E
:1025CC00F86800F087F90346002B07D0FB6804225B
:1025DC005A74FB6800221A74012327E0F86800F093
:1025EC00A0F9B861BB69B3F1FF3F18D0BA69FB69B8
:1025FC009A4214D2BB6903F5A83303F5C073BB61CF
:10260C00B969F86800F0A6F90346002B07D0FB68FF
:10261C0004225A74FB6800221A74012306E0FB683A
:10262C0001225A74FB6800221A74002318462037C2
:10263C00BD4680BDC5B3A291ABAAAAAA8051010028
:10264C0080B586B000AFF860B9607A6007F114030A
:10265C0000210A461A800A469A70FB68002B02D0A9
:10266C00BB68002B01D101233AE007F114030022CF
:10267C001946F868FFF756FE0346002B01D00123DC
:10268C002EE0FB681A7BBB681A70FB68DA7BBB68B0
:10269C00DA70FB685A7BBB685A70FB689A7BBB6824
:1026AC009A707B68002B1AD0BB68DB78184600F058
:1026BC00C8F903461A46BB68DA70BB685B781846E3
:1026CC0000F0BFF903461A46BB685A70BB689B788A
:1026DC00184600F0B6F903461A46BB689A700023F8
:1026EC0018461837BD4680BD90B589B000AFF8606C
:1026FC00B9607A600023FB6107F1140300210A46DC
:10270C001A800A469A70FB68002B02D0BB68002B1B
:10271C0001D101237DE0FB681B7C012B01D102233D
:10272C0077E0FB6801221A74FB6802225A7407F1E5
:10273C00140300221946F868FFF7F4FD0346002B3A
:10274C0001D0012365E03B7D1A464FF4616303FB26
:10275C0002F27B7D19460B461B015B1A9B0013444E
:10276C00BA7D1344BB617B68002B13D1BB681B780B
:10277C001A464FF4616303FB02F2BB685B7819469F
:10278C000B461B015B1A9B001344BA6892781344E6
:10279C00FB611EE0BB681B78184600F06FF903461E
:1027AC001A464FF4616303FB02F4BB685B7818466E
:1027BC0000F064F903461A4613461B019B1A9B0052
:1027CC001C44BB689B78184600F058F90346234418
:1027DC00FB61FA69BB699A4205D2FB6903F5A83320
:1027EC0003F5C073FB61F969F86800F0B3F80346B0
:1027FC00002B07D0FB6804225A74FB6800221A7461
:10280C00012306E0FB6801225A74FB6800221A744B
:10281C00002318462437BD4690BD80B584B000AF68
:10282C0078600023FB607B68002B01D101231DE045
:10283C007B681B685A687B681B6822F008025A6028
:10284C00FEF70CFCF86009E0FEF708FC0246FB689A
:10285C00D31AB3F57A7F01D9032307E07B681B6891
:10286C005B6803F00803002BEED0002318461037EA
:10287C00BD4680BD80B487B000AF786000237B82FA
:10288C0000233B820023FB8100237B617B681B6858
:10289C009B697B827B681B68DB69FB817B681B689F
:1028AC009B693B827A8A3B8A9A4208D03B8A1A04FB
:1028BC007B681B68DB699BB213437B6104E07B8AFA
:1028CC001A04FB8913437B617B6918461C37BD4690
:1028DC0080BC704780B584B000AF7860396000234D
:1028EC00FB73786800F05DF80346002B02D00123DF
:1028FC00FB7311E07B681B683A68120C9A617B6869
:10290C001B683A6892B2DA61786800F072F8034694
:10291C00002B01D00123FB73FB7B18461037BD46FF
:10292C0080BD80B485B000AF78600023FB810023AC
:10293C00BB817B681B681B6AFB817B681B685B6ABD
:10294C00BB81FB891A04BB89134318461437BD4657
:10295C0080BC704780B584B000AF786039600023CC
:10296C00FB73786800F01DF80346002B02D001239E
:10297C00FB7311E07B681B683A68120C1A627B6867
:10298C001B683A6892B25A62786800F032F80346D3
:10299C00002B01D00123FB73FB7B18461037BD467F
:1029AC0080BD80B584B000AF78600023FB60FEF77B
:1029BC0055FBF86009E0FEF751FB0246FB68D31AA1
:1029CC00B3F57A7F01D903230FE07B681B685B6842
:1029DC0003F02003002BEED07B681B685A687B68E1
:1029EC001B6842F010025A60002318461037BD468F
:1029FC0080BD80B584B000AF78600023FB607B683D
:102A0C001B685A687B681B6822F010025A60FEF73C
:102A1C0025FBF86009E0FEF721FB0246FB68D31AA0
:102A2C00B3F57A7F01D9032307E07B681B685B68E9
:102A3C0003F02003002BEED0002318461037BD46C0
:102A4C0080BD80B485B000AF0346FB710023FB60F2
:102A5C0005E0FB680133FB60FB790A3BFB71FB79FA
:102A6C00092BF6D8FB68DBB21B01DAB2FB791343F6
:102A7C00DBB218461437BD4680BC704780B485B0B5
:102A8C0000AF0346FB710023FB60FB791B09DBB233
:102A9C001A4613469B0013445B00FB60FB7903F062
:102AAC000F03DAB2FB68DBB21344DBB218461437FF
:102ABC00BD4680BC704780B586B000AF7860396089
:102ACC0000237B6100233B610023FB600023BB6080
:102ADC007B68DB7B7B617B685B7B3B617B689B7B87
:102AEC00FB600023BB606FE03B69012B11D03B699D
:102AFC00032B0ED03B69052B0BD03B69072B08D061
:102B0C003B69082B05D03B690A2B02D03B690C2B87
:102B1C0017D1FB681E2B03D8FB680133FB6050E018
:102B2C003B690C2B05D03B6901333B610123FB60F6
:102B3C0047E001233B610123FB607B6901337B612F
:102B4C003FE03B69042B08D03B69062B05D03B6961
:102B5C00092B02D03B690B2B0CD1FB681D2B03D826
:102B6C00FB680133FB602CE03B6901333B610123C3
:102B7C00FB6026E03B69022B23D1FB681B2B03D89F
:102B8C00FB680133FB601CE0FB681C2B11D17B69DB
:102B9C009BB2184600F038F80346002B03D0FB68B4
:102BAC000133FB600DE03B6901333B610123FB60AA
:102BBC0007E0FB681D2B04D13B6901333B6101230A
:102BCC00FB60BB680133BB60BA683B689A428BD32D
:102BDC007B69DAB27B68DA733B69DAB27B685A7369
:102BEC00FB68DAB27B689A733B69DBB2FA68D2B2E3
:102BFC001946786900F03AF803461A467B681A734E
:102C0C0000BF1837BD4680BD80B483B000AF03460B
:102C1C00FB80FB8803F003039BB2002B01D0002345
:102C2C001DE0FB88104AA2FB03125209642101FB30
:102C3C0002F29B1A9BB2002B01D001230FE0FB8800
:102C4C00094AA2FB0312D2094FF4C87101FB02F22C
:102C5C009B1A9BB2002B01D1012300E000231846E4
:102C6C000C37BD4680BC70471F85EB5180B485B0D6
:102C7C0000AF78600B46FB701346BB700023BB6043
:102C8C000023FB607B6803F5FA63BB60FB78022BC7
:102C9C002DD8FA7813465B001344DB009B1A2C4AA0
:102CAC00A2FB03235A08BB781A44BB681A44BB68BE
:102CBC00013B9B081A44BB68013B2649A1FB03134B
:102CCC005B09D21ABB68013B2249A1FB0313DB0948
:102CDC0013441A1D204BA3FB0213D11A49080B44B1
:102CEC0099080B46DB005B1AD31AFB6029E0FA78D3
:102CFC0013465B001344DB009B1A154AA2FB03230B
:102D0C005A08BB781A44BB681A44BB689B081A441F
:102D1C00BB681049A1FB03135B09D21ABB680D49B0
:102D2C00A1FB0313DB0913449A1C0B4BA3FB0213EB
:102D3C00D11A49080B4499080B46DB005B1AD31ACD
:102D4C00FB60FB68DBB218461437BD4680BC70478D
:102D5C00398EE3381F85EB512549922480B487B016
:102D6C0000AFF860B9607A6000237B61074B7B6130
:102D7C00BB689B007A6913447B617B697A6892B269
:102D8C001A6000BF1C37BD4680BC7047006C004009
:102D9C000EB46FF0004100B59CB01DAB02900690D4
:102DAC00079104910848094953F8042B05910068D0
:102DBC0002A9019300F08EF90022029B1A701CB03C
:102DCC005DF804EB03B07047D80000200802FFFF49
:102DDC0003460244934200D1704703F8011BF9E704
:102DEC00014B1868704700BFD800002070B5002652
:102DFC000C4D0D4C641BA410A64209D100F07AFCBA
:102E0C0000260A4D0A4C641BA410A64205D170BDC5
:102E1C0055F8043B98470136EEE755F8043B9847C4
:102E2C000136F2E7043800080438000804380008BA
:102E3C00083800087047704738B50546002940D05F
:102E4C0051F8043C0C1F002BB8BFE41800F0DCF860
:102E5C001C4A136833B9636014602846BDE83840D7
:102E6C0000F0D8B8A34208D9206821188B4201BFC2
:102E7C0019685B6809182160EDE71A465B680BB1AD
:102E8C00A342FAD911685018A0420BD12068014412
:102E9C00501883421160E0D118685B6808441060D8
:102EAC005360DAE702D90C232B60D6E7206821188F
:102EBC008B4201BF19685B6809182160636054601C
:102ECC00CBE738BD8C02002070B50E4E0C46316835
:102EDC00054611B900F0AAFB30602146284600F0E7
:102EEC00A5FB431C0AD0C41C24F00304A04207D049
:102EFC00211A284600F09AFB013001D14FF0FF3423
:102F0C00204670BD900200202DE9F843CD1C25F021
:102F1C00030508350C2D38BF0C25002D074601DBA9
:102F2C00A94205D90C2300263B603046BDE8F88346
:102F3C00DFF8D08000F068F8D8F800301C465CBB95
:102F4C0029463846FFF7C0FF431C044655D1D8F834
:102F5C0000402646002E45D1002C48D0236831462F
:102F6C00384604EB030900F061FB81453FD1216831
:102F7C0038466D1A2946FFF7A7FF013037D0236872
:102F8C002B442360D8F80030002B38D05A68A2426A
:102F9C002BD100225A600FE02268521B1FD40B2A3F
:102FAC0017D96119A342256018BF5960636808BF1F
:102FBC00C8F8001062514B60384604F10B0600F063
:102FCC0029F826F00706231DF21AAED09B1BA3503E
:102FDC00ABE7A3426268DDD1C8F80020ECE72346DA
:102FEC006468ACE734467668B4E71346CCE70C2348
:102FFC0038463B6000F00EF897E72560DCE75B6035
:10300C00FFDE00BF8C0200200148FFF713BF00BF9A
:10301C00880200200148FFF70EBF00BF8802002085
:10302C002DE9F0471F468E688246BE420C469046FC
:10303C000B682CD88A8912F4906F26D065690969BF
:10304C0005EB4505A3EB010905EBD5757B1C4B4442
:10305C006D109D4238BF1D46530527D52946FFF7F5
:10306C0053FF064660B34A46216900F0FDFAA38976
:10307C0023F4906343F08003A38126614E442660C1
:10308C003E466561A5EB0905A560BE4200D93E46EA
:10309C0032464146206800F0AFFA0020A3689B1B23
:1030AC00A360236833442360BDE8F0872A4600F010
:1030BC00E9FA06460028E0D150462169FFF7BCFE2C
:1030CC000C23CAF80030A3894FF0FF3043F04003C3
:1030DC00A381E9E72DE9F04F98468B8907461B063B
:1030EC000D4614469DB00ED50B6963B94021FFF710
:1030FC000BFF2860286120B90C233B604FF0FF3098
:10310C00D0E040236B610023099320238DF82930F4
:10311C0030234FF00109CDF80C80DFF8A0818DF839
:10312C002A3023469A4613F8012B0AB1252AF9D1E5
:10313C00BAEB040B0BD05B46224629463846FFF708
:10314C006FFF013000F0A980099A5A4409929AF84D
:10315C000030002B00F0A18000234FF0FF32CDE9AE
:10316C0005230AF1010A049307938DF853301A933F
:10317C005446052214F8011B504800F067FA049AD3
:10318C00D8B9D00644BF20238DF85330110744BF63
:10319C002B238DF853309AF800302A2B15D0544637
:1031AC0000204FF00A0C079A214611F8013B303BE6
:1031BC00092B4DD9B0B1079214E0A0EB080309FA22
:1031CC0003F31343A2460493D2E7039B191D1B6818
:1031DC000391002BBBBF5B4242F0020207930793A3
:1031EC00B8BF049223782E2B0CD163782A2B34D1C0
:1031FC00039B02341A1D1B680392002BB8BF4FF0BF
:10320C00FF330593DFF8B8A003225046217800F075
:10321C001DFA38B14022049BA0EB0A0082401343F4
:10322C000134049314F8011B062226488DF828104B
:10323C0000F00CFA002838D0234B1BBB039B073340
:10324C0023F0070308330393099B3344099368E77E
:10325C000C4601200CFB0232A6E700234FF00A0CAF
:10326C00194601340593204610F8012B303A092AEF
:10327C0003D9002BC6D00591C4E7044601230CFBEF
:10328C000121F0E703AB00932A4638460F4B04A903
:10329C00AFF30080421C0646D6D1AB895B063FF5E6
:1032AC002DAF09981DB0BDE8F08F03AB00932A46F3
:1032BC003846064B04A900F07DF8EBE7D037000840
:1032CC00D6370008DA370008000000002D3000085F
:1032DC002DE9F047164699468A680B6907469342D2
:1032EC00B8BF1346336091F843200C46DDF82080BC
:1032FC000AB1013333602368990642BF3368023345
:10330C003360256815F0060506D104F1190AE36847
:10331C0032689B1AAB422BDC94F84320131E2268B4
:10332C0018BF0123920630D44946384604F14302B3
:10333C00C047013023D02368226903F00603042B15
:10334C0014BF002533684FF0000608BFE56804F190
:10335C001A0408BFED1A54F8123C08BF25EAE575AB
:10336C009342C4BF9B1AED18B5421AD1002008E055
:10337C000123524649463846C047013003D14FF02D
:10338C00FF30BDE8F0870135C1E73020E11881F846
:10339C0043005A1C94F845102244023382F843101F
:1033AC00C2E70123224649463846C0470130E6D0E1
:1033BC000136D9E72DE9FF470F7E9146782F8046DD
:1033CC000C469A460C9D01F1430207D8622F0AD88D
:1033DC00002F00F0D580582F00F0C18004F1420579
:1033EC0084F842703AE0A7F16303152BF6D801A1DB
:1033FC0051F823F0593400086D340008E933000803
:10340C00E9330008E9330008E93300086D3400089B
:10341C00E9330008E9330008E9330008E933000810
:10342C0073350008993400082D350008E93300087D
:10343C00E933000895350008E93300089934000891
:10344C00E9330008E9330008353500082B681A1DEC
:10345C001B682A6004F1420584F842300123A0E085
:10346C0020682B68070603F10401296001D51E684A
:10347C0003E04606FBD5B3F90060002E03DA2D23DA
:10348C00764284F843300A23594812E02B682068AE
:10349C00191D2960050601D51E6802E04106FBD501
:1034AC001E886F2F0CBF08230A235148002184F873
:1034BC0043106568002DA8BF2168A560A4BF21F04A
:1034CC00040121600EB9002D4BD01546B6FBF3F16B
:1034DC0003FB1167C75D05F8017D3746BB420E46FD
:1034EC00F4D9082B0BD12368DE0708D52369616852
:1034FC009942DEBF302305F8013C05F1FF35521B24
:10350C0022614B4621464046CDF800A003AAFFF7A6
:10351C00DFFE01304AD14FF0FF3004B0BDE8F08738
:10352C00236843F0200323607827324884F84570E1
:10353C00236829681F0651F8046B02D45F0648BF44
:10354C00B6B2DF0748BF43F02003296048BF2360B1
:10355C001EB9236823F0200323601023A6E7244818
:10356C00E4E71546BDE72B682668181D61692860DD
:10357C0035061B6801D5196002E07006FBD5198071
:10358C00002315462361BCE72B6800211A1D2A6015
:10359C001D686268284600F059F808B1401B60604D
:1035AC0063682361002384F84330AAE72A4649461E
:1035BC0040462369D0470130ADD023689B0713D414
:1035CC00E068039B9842B8BF1846A6E70123324631
:1035DC0049464046D04701309DD00135E3680399F8
:1035EC005B1AAB42F2DCEBE7002504F11906F5E7B8
:1035FC00E1370008F2370008884210B501EB0204ED
:10360C0002D98442234607D8431EA14208D011F8A0
:10361C00012B03F8012FF8E7014602448A4200D13E
:10362C0010BD13F8014D02F8014DF7E738B5002332
:10363C00054D044608462B60FDF756FC431C02D191
:10364C002B6803B1236038BD84020020034610B5FB
:10365C00C9B202449342184601D1002003E0047819
:10366C0001338C42F6D110BD0A44914200F1FF3374
:10367C0000D1704710B511F8014B914203F8014F7E
:10368C00F9D110BD2DE9F041804614460E4621B902
:10369C001146BDE8F041FFF737BC2AB9FFF7CCFB68
:1036AC0025462846BDE8F08100F01BF88442074609
:1036BC0002D8B4EB500F12D821464046FFF724FC39
:1036CC0005460028EDD0BC422246314628BF3A467A
:1036DC00FFF7CAFF31464046FFF7AEFBE1E7354640
:1036EC00DFE751F8043C181F002BBCBF0B58C01867
:1036FC0070470000F8B500BFF8BC08BC9E46704788
:0C370C00F8B500BFF8BC08BC9E46704732
:10371800253032643A253032643A2530326400006C
:10372800253032642D253032642D253264000000A6
:10373800317374204D696E73203A00003173742020
:1037480053656373203A0000326E64204D696E73CE
:10375800203A0000326E642053656373203A0000FB
:10376800496E7469616C2054696D657220313A0044
:10377800496E7469616C2054696D657220323A0033
:1037880002030405060708090A0B0C0D0E0F10109A
:1037980002030405060708090A0B0C0D0E0F10108A
:1037A8003132334134353642373839432A302344AD
:1037B80000000000000000000102030406070809D9
:1037C8000000000001020304232D302B2000686C48
:1037D8004C0065666745464700303132333435362C
:1037E8003738394142434445460030313233343565
:0C37F80036373839616263646566000092
:043804003101000886
:043808000D010008A6
:10380C000008014009000000000801400A00000007
:10381C00000801400B000000000801400C000000F3
:10382C00000C014003000000000C014004000000EB
:10383C00000C014005000000000C014006000000D7
:10384C0000080140040000000008014005000000D1
:10385C0000080140060000000008014000000000C4
:10386C0000080140010000000008014002000000B7
:10387C000008014003000000FF3020000A000F0088
:10388C000024F40010000000010000000000000003
:10389C004C010020B40100201C020020000000009C
:1038AC00000000000000000000000000000000000C
:1038BC0000000000000000000000000000000000FC
:1038CC0000000000000000000000000000000000EC
:0C38DC0000000000000000008C00002034
:0400000508000F6D73
:00000001FF
