:020000040800F2
:10000000005000204D0E0008F10D0008F70D00080B
:10001000FD0D0008030E0008090E00080000000096
:100020000000000000000000000000000F0E0008AB
:100030001B0E000800000000270E0008330E000809
:10004000950E0008950E0008950E0008950E000804
:10005000950E0008950E0008950E0008950E0008F4
:10006000950E0008950E0008950E0008950E0008E4
:10007000950E0008950E0008950E0008950E0008D4
:10008000950E0008950E0008950E0008950E0008C4
:10009000950E0008950E0008950E0008950E0008B4
:1000A000950E0008950E0008950E0008950E0008A4
:1000B000950E0008950E0008950E0008950E000894
:1000C000950E0008950E0008950E0008950E000884
:1000D000950E0008950E0008950E0008950E000874
:1000E000950E0008950E0008950E0008000000000F
:1000F0000000000000000000000000000000000000
:0C01000000000000000000005FF808F1A3
:10010C0010B5054C237833B9044B13B10448AFF345
:10011C0000800123237010BD8C0000200000000023
:10012C002C2C000808B5034B1BB103490348AFF353
:10013C00008008BD00000000900000202C2C00085E
:10014C0080B584B000AF78607B681B79FB737B68EB
:10015C005B79BB73FB7B0F2B0DD87B681B68BA7B61
:10016C00F97B184600F00BF87B689B791946786888
:10017C0000F04AF800E000BF1037BD4680BD80B4E7
:10018C0083B000AF78600B46FB701346BB70FB78F6
:10019C000F2B34D8FB78072B15D87B681B68FA78A3
:1001AC0092000F2101FA02F2D2431A407B681A60C6
:1001BC007B681B68B978FA78920001FA02F21A434C
:1001CC007B681A601CE0FB780F2B19D8FB78083B76
:1001DC00FB707B685B68FA7892000F2101FA02F2DF
:1001EC00D2431A407B685A607B685B68B978FA78AE
:1001FC00920001FA02F21A437B685A6000E000BFD9
:10020C000C37BD4680BC704780B483B000AF7860BB
:10021C000B46FB707B681B790F2B16D8FB78012BD8
:10022C0009D17B681B791A46012303FA02F27B6819
:10023C001B681A610AE07B681B791A46012303FAD2
:10024C0002F27B681B685A6100E000BF0C37BD46A8
:10025C0080BC704780B483B000AF78607B681B793A
:10026C000F2B01D9002309E07B681B689B687A6817
:10027C001279D340DBB203F00103DBB218460C3722
:10028C00BD4680BC7047000080B584B000AF78607C
:10029C00FF23FB730023BB7343E000237B730AE053
:1002AC007B7BDB007A68134401211846FFF7ACFF17
:1002BC007B7B01337B737B7B032BF1D9BB7BDB001B
:1002CC007A68134400211846FFF79EFF00233B7306
:1002DC0021E03B7B0433DB007A6813441846FFF7BC
:1002EC00B9FF0346002B13D100BF3B7B0433DB006B
:1002FC007A6813441846FFF7ADFF0346002BF4D081
:10030C00BA7B3B7B0B4992000A4413441B78FB736A
:10031C003B7B01333B733B7B032BDAD9BB7B013338
:10032C00BB73BB7B032BB8D9FB7B18461037BD4680
:10033C0080BD00BF842C000880B584B000AF78600D
:10034C000023FB737B68002B5ED07B6802225A7102
:10035C007B6802225A737B6802225A757B680022E2
:10036C009A717B6800229A737B6800229A757B686D
:10037C001846FFF7E5FE7B6808331846FFF7E0FEEA
:10038C007B6810331846FFF7DBFE0023FB7318E085
:10039C00FB7B7A680333DB00134402225A71FB7B2C
:1003AC007A680333DB00134400229A71FB7B03331E
:1003BC00DB007A6813441846FFF7C2FEFB7B01335F
:1003CC00FB73FB7B032BE3D9142000F0C1FD33211D
:1003DC00786800F01DF83221786800F019F82821AF
:1003EC00786800F015F80C21786800F011F80621F7
:1003FC00786800F00DF88021786800F009F8012188
:10040C00786800F005F800E000BF1037BD4680BDED
:10041C0080B582B000AF78600B46FB707B68002B18
:10042C001DD07B6800211846FFF7EEFE7B68083371
:10043C0000211846FFF7E8FEFB781B09DBB21946D2
:10044C00786800F0DFF8786800F018F9FB78194646
:10045C00786800F0D7F8786800F010F900E000BF79
:10046C000837BD4680BD80B582B000AF78600B46C2
:10047C00FB707B68002B1DD07B6801211846FFF7B1
:10048C00C3FE7B68083300211846FFF7BDFEFB78DE
:10049C001B09DBB21946786800F0B4F8786800F0F4
:1004AC00EDF8FB781946786800F0ACF8786800F045
:1004BC00E5F800E000BF0837BD4680BD80B582B0CE
:1004CC0000AF7860084611461A460346FB700B468F
:1004DC00BB7013467B707B68002B0BD0BA78FB7813
:1004EC001946786800F0F2F87B7819467868FFF7BF
:1004FC00BAFF00E000BF0837BD4680BD80B584B0B0
:10050C0000AFF8607B600B46FB721346BB72FB6856
:10051C00002B13D0BA7AFB7A1946F86800F0D6F89B
:10052C0007E07B685A1C7A601B781946F868FFF75D
:10053C009AFF7B681B78002BF3D100E000BF1037CB
:10054C00BD4680BD80B582B000AF7860012178686F
:10055C00FFF75EFF00BF0837BD4680BD80B586B093
:10056C0000AF78600B46FB701346BB70BB78013B49
:10057C00BB700023FB757B68002B21D1BA78F9780E
:10058C0030231E48FFF79AFF34E079681C4BA3FB1D
:10059C000123DA0813469B0013445B00CA1AD2B23B
:1005AC00FB7D3032D2B218333B4403F80C2C7B6801
:1005BC00134AA2FB0323DB087B60FB7D0133FB7535
:1005CC007B68002BE1D1FB7DBB7510E0BB78013360
:1005DC00BB70BB7D013B18333B4413F80C3CBA7821
:1005EC00F9780648FFF76AFFBB7D013BBB75BB7D05
:1005FC00002BEBD100BF1837BD4680BD400000205A
:10060C00CDCCCCCC80B582B000AF78600B46FB7003
:10061C007B6803F11802FB7803F00103DBB2194687
:10062C001046FFF7F1FD7B6803F12002FB785B08B5
:10063C00DBB203F00103DBB219461046FFF7E4FD11
:10064C007B6803F12802FB789B08DBB203F0010303
:10065C00DBB219461046FFF7D7FD7B6803F1300279
:10066C00FB78DB08DBB203F00103DBB21946104662
:10067C00FFF7CAFD00BF0837BD4680BD80B584B00A
:10068C0000AF78607B68103301211846FFF7BCFD82
:10069C000023FB7302E0FB7B0133FB73FB7B092B19
:1006AC00F9D97B68103300211846FFF7ADFD002304
:1006BC00BB8102E0BB890133BB81BB89B3F5FA6F07
:1006CC00F8D300BF00BF1037BD4680BD80B582B0E7
:1006DC0000AF78600B46FB701346BB70BB78013BD8
:1006EC00BB70FB78013B032B2AD801A252F823F0F4
:1006FC000D0700081D0700082D0700083D0700081E
:10070C00BB78803BDBB219467868FFF781FE17E0B7
:10071C00BB78403BDBB219467868FFF779FE0FE0F7
:10072C00BB786C3BDBB219467868FFF771FE07E0CB
:10073C00BB782C3BDBB219467868FFF769FE00BF2B
:10074C0000BF0837BD4680BD80B483B000AF034600
:10075C000A46FB711346BB71FB79022B1CD0022B92
:10076C0025DC002B02D0012B0BD020E0134B5B6956
:10077C00BA79012101FA02F21146104A0B43536176
:10078C0016E00E4BDB69BA79012101FA02F211462F
:10079C000A4A0B43D3610BE0084B9B69BA790121E0
:1007AC0001FA02F21146054A0B43936100E000BFC7
:1007BC0000BF0C37BD4680BC704700BF0010024024
:1007CC0080B588B000AF07F1100300221A605A60A0
:1007DC009A60DA602A4B9B69294A43F010039361B3
:1007EC00274B9B6903F01003FB60FB68244B9B6950
:1007FC00234A43F020039361214B9B6903F02003B0
:10080C00BB60BB681E4B9B691D4A43F0040393619C
:10081C001B4B9B6903F004037B607B68184B9B6943
:10082C00174A43F008039361154B9B6903F00803C7
:10083C003B603B6800224FF4F051124800F014FE6C
:10084C004FF4F0533B6101237B610023BB61022316
:10085C00FB6107F1100319460A4800F081FC78236C
:10086C003B6100237B610123BB6107F11003194637
:10087C00054800F075FC00BF2037BD4680BD00BFA9
:10088C000010024000080140000C014080B500AF90
:10089C00164B1B78DAB2164B1A70164B1B78DAB261
:1008AC00134B5A70144B1B78DAB2114B9A7001220D
:1008BC000F49124801F00EFC114B02221A70104B1A
:1008CC0008225A700E4B12229A700D4B0022DA70CD
:1008DC0001220B49094801F06DFD43F2F22201217E
:1008EC00064802F057F900BF80BD00BFBA000020D7
:1008FC00AC000020B8000020B9000020CC00002083
:10090C00A800002080B582B000AF1648FFF71AFE91
:10091C000A2000F01DFB144B1B88042201211846F1
:10092C00FFF71CFE0A2000F013FB00237B6010E095
:10093C000E4A7B6832F8133018460D4A7B6832F841
:10094C001330DBB21A460121FFF708FE7B68013336
:10095C007B607B68012BEBDD00BF00BF0837BD4619
:10096C0080BD00BF40000020C8000020C400002053
:10097C007C00002080B582B000AF00237B6020E0BB
:10098C00284B1B685A1E28497B689B000B445B88CC
:10099C009A4213D1254B1B889BB2002B0ED1244AB3
:1009AC007B6832F81330013B99B2214A7B6822F8FC
:1009BC0013101E4B01221A80FFF7A4FF7B68013332
:1009CC007B607B68012BDBDD174B5B881A46154B74
:1009DC001B689A420AD0144BDB881A46114B1B68D1
:1009EC009A4203D00F4B1B68012B02D10F4B0022F4
:1009FC001A800C4B1B683B2B0FD10C4B1B889BB2EA
:100A0C00002B0AD10B4B1B8801339AB2094B1A806D
:100A1C00064B01221A80FFF775FF00BF0837BD4651
:100A2C0080BD00BFB0000020BC000020CA00002028
:100A3C00C4000020C800002080B500AF0022084987
:100A4C00084801F0DFFB064B9B781A46064B1A60F0
:100A5C00034B5B781A46054B1A6000BF80BD00BF84
:100A6C00AC000020CC000020B0000020B40000201E
:100A7C0080B582B000AF0023FB801A4BFF221A70A6
:100A8C0024E01948FFF700FC03461A46154B1A7070
:100A9C00144B1B782F2B19D9124B1B78392B15D8CB
:100AAC00104B1B7819461148FFF7DDFC0D4B1B78DA
:100ABC009AB2FB88194689000B445B009BB2134425
:100ACC009BB2303BFB80074BFF221A70054B1B7807
:100ADC002A2BD6D1034BFF221A70FB8818460837F5
:100AEC00BD4680BD780000200000002040000020A2
:100AFC0080B500AF00F0CAF900F05AF8FFF760FEBD
:100B0C0000F0B6F802210220FFF71EFE032102209E
:100B1C00FFF71AFEFFF7BAFE1F48FFF70DFC1F4B3D
:100B2C005B789AB21E4B1A801C4B9B789BB202339B
:100B3C009AB21B4B5A80194B5B789AB2184B9A801D
:100B4C00164B9B789BB204339AB2154BDA80124841
:100B5C00FFF7F8FC134B022201210F48FFF7CEFCE4
:100B6C00FFF786FF03461A460F4B1A800A48FFF719
:100B7C00E9FC0E4B022201210748FFF7BFFCFFF7EF
:100B8C0077FF03461A46084B5A80FFF7BBFEFFF768
:100B9C0053FFFFF7EFFEFAE740000020AC00002007
:100BAC00BC000020442C0008C4000020542C000879
:100BBC0080B594B000AF07F1280328220021184615
:100BCC0002F002F807F1140300221A605A609A60CE
:100BDC00DA601A613B1D00221A605A609A60DA6072
:100BEC000123BB624FF48033FB6200233B63012380
:100BFC00BB6302237B644FF48033BB644FF4E0137C
:100C0C00FB6407F12803184600F052FC0346002B46
:100C1C0001D000F028F80F237B610223BB61002375
:100C2C00FB614FF480633B6200237B6207F114038A
:100C3C000221184600F0BEFE0346002B01D000F046
:100C4C0012F801237B604FF44073BB603B1D1846C8
:100C5C0001F034F80346002B01D000F004F800BF7B
:100C6C005037BD4680BD80B400AF72B600BFFEE702
:100C7C0080B584B000AF07F10C0300210A461A803E
:100C8C000A469A700023BB603B4600221A605A60E9
:100C9C00274B284A1A60264B4FF0FF325A60244BE0
:100CAC004FF480729A60224801F07EF90346002BC3
:100CBC0001D0FFF7D8FF00233B7300237B73002385
:100CCC00BB7307F10C0301221946194801F002FA13
:100CDC000346002B01D0FFF7C6FF01233B72012313
:100CEC007B720123BB720023FB7207F10803012204
:100CFC0019460F4801F05EFB0346002B01D0FFF7AD
:100D0C00B2FF00233B7000237B700023BB700023D9
:100D1C007B603B4601221946054801F001FC034665
:100D2C00002B01D0FFF79FFF00BF1037BD4680BDE1
:100D3C00CC0000200028004080B584B000AF786063
:100D4C007B681B680B4A934210D100F0A5FB0A4B41
:100D5C00DB69094A43F00063D361074BDB6903F09D
:100D6C000063FB60FB68054B01221A6000BF103763
:100D7C00BD4680BD00280040001002403C044242A9
:100D8C0080B485B000AF154B9B69144A43F0010346
:100D9C009361124B9B6903F00103BB60BB680F4B63
:100DAC00DB690E4A43F08053D3610C4BDB6903F0D3
:100DBC0080537B607B680A4B5B68FB60FB6823F0AD
:100DCC00E063FB60FB6843F00073FB60044AFB6864
:100DDC00536000BF1437BD4680BC70470010024002
:100DEC000000014080B400AFFEE780B400AFFEE726
:100DFC0080B400AFFEE780B400AFFEE780B400AF74
:100E0C00FEE780B400AF00BFBD4680BC704780B425
:100E1C0000AF00BFBD4680BC704780B400AF00BFC0
:100E2C00BD4680BC704780B500AF00F075F800BFC0
:100E3C0080BD80B400AF00BFBD4680BC70470000D1
:100E4C000C480D490D4A002302E0D458C450043319
:100E5C00C4188C42F9D30A4A0A4C002301E01360EF
:100E6C000432A242FBD3FFF7E4FF01F0B5FEFFF71B
:100E7C003FFE7047000000208C000020B42C0008BE
:100E8C008C000020E4000020FEE7000080B500AFDD
:100E9C00084B1B68074A43F010031360032000F053
:100EAC002BF90F2000F008F8FFF76AFF0023184613
:100EBC0080BD00BF0020024080B582B000AF7860DA
:100ECC00124B1A68124B1B7819464FF47A73B3FB0A
:100EDC00F1F3B2FBF3F3184600F035F90346002B9F
:100EEC0001D001230EE07B680F2B0AD80022796811
:100EFC004FF0FF3000F00BF9064A7B6813600023BB
:100F0C0000E0012318460837BD4680BD8000002054
:100F1C00880000208400002080B400AF054B1B78B3
:100F2C001A46054B1B681344034A136000BFBD46A9
:100F3C0080BC704788000020E000002080B400AF27
:100F4C00024B1B681846BD4680BC7047E000002071
:100F5C0080B584B000AF7860FFF7F0FFB8607B68B5
:100F6C00FB60FB68B3F1FF3F05D00A4B1B781A46B8
:100F7C00FB681344FB6000BFFFF7E0FF0246BB6851
:100F8C00D31AFA689A42F7D800BF00BF1037BD4693
:100F9C0080BD00BF8800002080B485B000AF7860B1
:100FAC007B6803F00703FB600C4BDB68BB60BA6823
:100FBC004FF6FF031340BB60FB681A02BB68134378
:100FCC0043F0BF6343F40033BB60044ABB68D36097
:100FDC0000BF1437BD4680BC704700BF00ED00E079
:100FEC0080B400AF044BDB681B0A03F00703184600
:100FFC00BD4680BC704700BF00ED00E080B483B0FC
:10100C0000AF03463960FB7197F90730002B0ADB00
:10101C003B68DAB20C4997F907301201D2B20B4493
:10102C0083F800230AE03B68DAB20849FB7903F045
:10103C000F03043B1201D2B20B441A7600BF0C37DB
:10104C00BD4680BC704700BF00E100E000ED00E051
:10105C0080B489B000AFF860B9607A60FB6803F0C7
:10106C000703FB61FB69C3F10703042B28BF0423AF
:10107C00BB61FB690433062B02D9FB69033B00E01F
:10108C0000237B614FF0FF32BB6902FA03F3DA43B2
:10109C00BB681A407B699A404FF0FF317B6901FABB
:1010AC0003F3D9437B680B40134318462437BD46E2
:1010BC0080BC704780B582B000AF78607B68013B24
:1010CC00B3F1807F01D301230FE00A4A7B68013B17
:1010DC0053600F214FF0FF30FFF790FF054B0022BC
:1010EC009A60044B07221A60002318460837BD4645
:1010FC0080BD00BF10E000E080B582B000AF78602A
:10110C007868FFF749FF00BF0837BD4680BD80B542
:10111C0086B000AF0346B9607A60FB7300237B6135
:10112C00FFF75EFF78617A68B9687869FFF790FF1E
:10113C00024697F90F3011461846FFF75FFF00BFC4
:10114C001837BD4680BD80B582B000AF7860786836
:10115C00FFF7B0FF034618460837BD4680BD0000B8
:10116C0080B48BB000AF7860396000237B620023C1
:10117C003B6269E101227B6A02FA03F3FB613B6883
:10118C001B68FA691340BB61BA69FB699A4240F06B
:10119C0058813B685B689A4A93425ED0984A934266
:1011AC0075D8984A934258D0964A93426FD8964A2B
:1011BC00934252D0944A934269D8944A93424CD069
:1011CC00924A934263D8924A934246D0904A9342B1
:1011DC005DD8122B2AD8122B59D801A252F823F021
:1011EC0067120008411200085312000895120008FB
:1011FC009B1200089B1200089B1200089B1200080F
:10120C009B1200089B1200089B1200089B120008FE
:10121C009B1200089B1200089B1200089B120008EE
:10122C009B120008491200085D120008794A93428B
:10123C0013D02CE03B68DB683B6229E03B68DB6841
:10124C0004333B6224E03B68DB6808333B621FE0FD
:10125C003B68DB680C333B621AE03B689B68002BF5
:10126C0002D104233B6213E03B689B68012B05D140
:10127C0008233B627B68FA691A6109E008233B6228
:10128C007B68FA695A6103E000233B6200E000BF0F
:10129C00BB69FF2B01D87B6801E07B6804337B6161
:1012AC00BB69FF2B02D87B6A9B0002E07B6A083B80
:1012BC009B003B617B691A680F213B6901FA03F3C0
:1012CC00DB431A40396A3B6901FA03F31A437B6921
:1012DC001A603B685B6803F08053002B00F0B18010
:1012EC004D4B9B694C4A43F0010393614A4B9B69FC
:1012FC0003F00103BB60BB68484A7B6A9B0802335E
:10130C0052F82330FB607B6A03F003039B000F222F
:10131C0002FA03F3DB43FA681340FB607B68404A34
:10132C00934213D07B683F4A93420DD07B683E4A70
:10133C00934207D07B683D4A934201D1032306E0D8
:10134C00042304E0022302E0012300E000237A6A74
:10135C0002F0030292009340FA681343FB602F499A
:10136C007B6A9B080233FA6841F823203B685B6870
:10137C0003F48033002B06D02D4B1A682C49BB6923
:10138C0013430B6006E02A4B1A68BB69DB43284900
:10139C0013400B603B685B6803F40033002B06D0F2
:1013AC00234B5A682249BB6913434B6006E0204B20
:1013BC005A68BB69DB431E4913404B603B685B6852
:1013CC0003F48013002B06D0194B9A681849BB699B
:1013DC0013438B6006E0164B9A68BB69DB431449D8
:1013EC0013408B603B685B6803F40013002B21D027
:1013FC000F4BDA680E49BB691343CB6021E000BF89
:10140C0000003210000031100000221000002110EA
:10141C0000001210000011100010024000000140EA
:10142C0000080140000C0140001001400014014074
:10143C00000401400B4BDA68BB69DB4309491340DC
:10144C00CB607B6A01337B623B681A687B6A22FA49
:10145C0003F3002B7FF48EAE00BF00BF2C37BD46CC
:10146C0080BC70470004014080B483B000AF78604A
:10147C000B467B8013467B707B78002B03D07A88DD
:10148C007B681A6103E07B881A047B681A6100BFD1
:10149C000C37BD4680BC704780B400AF034B0122B3
:1014AC001A6000BFBD4680BC704700BF20000E42D2
:1014BC0080B586B000AF78607B68002B01D101232A
:1014CC0072E27B681B6803F00103002B00F087803D
:1014DC00924B5B6803F00C03042B0CD08F4B5B68B6
:1014EC0003F00C03082B12D18C4B5B6803F4803394
:1014FC00B3F5803F0BD1894B1B6803F40033002BF1
:10150C006CD07B685B68002B68D101234CE27B6854
:10151C005B68B3F5803F06D1804B1B687F4A43F470
:10152C00803313602EE07B685B68002B0CD17B4B07
:10153C001B687A4A23F480331360784B1B68774A14
:10154C0023F4802313601DE07B685B68B3F5A02F48
:10155C000CD1724B1B68714A43F4802313606F4BA0
:10156C001B686E4A43F4803313600BE06B4B1B68B3
:10157C006A4A23F480331360684B1B68674A23F470
:10158C00802313607B685B68002B13D0FFF7D6FCBD
:10159C00386108E0FFF7D2FC02463B69D31A642B92
:1015AC0001D9032300E25D4B1B6803F40033002BCD
:1015BC00F0D014E0FFF7C2FC386108E0FFF7BEFC86
:1015CC0002463B69D31A642B01D90323ECE1534B3C
:1015DC001B6803F40033002BF0D100E000BF7B68E4
:1015EC001B6803F00203002B63D04C4B5B6803F0C9
:1015FC000C03002B0BD0494B5B6803F00C03082B3E
:10160C001CD1464B5B6803F48033002B16D1434B43
:10161C001B6803F00203002B05D07B681B69012BB0
:10162C0001D00123C0E13D4B1B6823F0F8027B681D
:10163C005B69DB00394913430B603AE07B681B693B
:10164C00002B20D0364B01221A60FFF777FC386153
:10165C0008E0FFF773FC02463B69D31A022B01D951
:10166C000323A1E12D4B1B6803F00203002BF0D0E8
:10167C002A4B1B6823F0F8027B685B69DB00274967
:10168C0013430B6015E0264B00221A60FFF756FC43
:10169C00386108E0FFF752FC02463B69D31A022B73
:1016AC0001D9032380E11D4B1B6803F00203002BBF
:1016BC00F0D17B681B6803F00803002B3AD07B68E1
:1016CC009B69002B19D0174B01221A60FFF736FCCF
:1016DC00386108E0FFF732FC02463B69D31A022B53
:1016EC0001D9032360E10D4B5B6A03F00203002B6D
:1016FC00F0D0012000F0C4FA1CE00A4B00221A6062
:10170C00FFF71CFC38610FE0FFF718FC02463B6941
:10171C00D31A022B08D9032346E100BF0010024064
:10172C000000424280044242924B5B6A03F0020387
:10173C00002BE9D17B681B6803F00403002B00F03D
:10174C00A6800023FB758B4BDB6903F08053002BC9
:10175C000DD1884BDB69874A43F08053D361854BAD
:10176C00DB6903F08053BB60BB680123FB75824BC4
:10177C001B6803F48073002B18D17F4B1B687E4AC7
:10178C0043F480731360FFF7D9FB386108E0FFF76F
:10179C00D5FB02463B69D31A642B01D9032303E121
:1017AC00754B1B6803F48073002BF0D07B68DB68EF
:1017BC00012B06D16F4B1B6A6E4A43F00103136277
:1017CC002DE07B68DB68002B0CD16A4B1B6A694AE5
:1017DC0023F001031362674B1B6A664A23F0040370
:1017EC0013621CE07B68DB68052B0CD1614B1B6A18
:1017FC00604A43F0040313625E4B1B6A5D4A43F07C
:10180C00010313620BE05B4B1B6A5A4A23F0010382
:10181C001362584B1B6A574A23F0040313627B680C
:10182C00DB68002B15D0FFF789FB38610AE0FFF766
:10183C0085FB02463B69D31A41F28832934201D9A7
:10184C000323B1E04B4B1B6A03F00203002BEED0D9
:10185C0014E0FFF773FB38610AE0FFF76FFB0246F9
:10186C003B69D31A41F28832934201D903239BE09E
:10187C00404B1B6A03F00203002BEED1FB7D012BC6
:10188C0005D13C4BDB693B4A23F08053D3617B6829
:10189C00DB69002B00F08780364B5B6803F00C0390
:1018AC00082B61D07B68DB69022B46D1334B0022BD
:1018BC001A60FFF743FB386108E0FFF73FFB024675
:1018CC003B69D31A022B01D903236DE0294B1B680A
:1018DC0003F00073002BF0D17B681B6AB3F5803FDB
:1018EC0008D1244B5B6823F400327B689B68214948
:1018FC0013434B601F4B5B6823F474127B68196AAB
:10190C007B685B6A0B431B4913434B601B4B0122E7
:10191C001A60FFF713FB386108E0FFF70FFB024674
:10192C003B69D31A022B01D903233DE0114B1B68F1
:10193C0003F00073002BF0D035E0104B00221A603E
:10194C00FFF7FCFA386108E0FFF7F8FA02463B694A
:10195C00D31A022B01D9032326E0064B1B6803F094
:10196C000073002BF0D11EE07B68DB69012B07D1E3
:10197C00012319E000100240007000406000424258
:10198C000B4B5B68FB60FB6803F480327B681B6A63
:10199C009A4206D1FB6803F470127B685B6A9A4228
:1019AC0001D0012300E0002318461837BD4680BD46
:1019BC000010024080B584B000AF786039607B685D
:1019CC00002B01D10123D0E06A4B1B6803F0070305
:1019DC003A689A4210D9674B1B6823F00702654995
:1019EC003B6813430B60634B1B6803F007033A68B7
:1019FC009A4201D00123B8E07B681B6803F0020314
:101A0C00002B20D07B681B6803F00403002B05D04F
:101A1C00594B5B68584A43F4E06353607B681B681E
:101A2C0003F00803002B05D0534B5B68524A43F478
:101A3C0060535360504B5B6823F0F0027B689B68EB
:101A4C004D4913434B607B681B6803F00103002B6B
:101A5C0040D07B685B68012B07D1474B1B6803F4B4
:101A6C000033002B15D101237FE07B685B68022BD0
:101A7C0007D1414B1B6803F00073002B09D10123E4
:101A8C0073E03D4B1B6803F00203002B01D10123D3
:101A9C006BE0394B5B6823F003027B685B6836496B
:101AAC0013434B60FFF74AFAF8600AE0FFF746FA77
:101ABC000246FB68D31A41F28832934201D90323C0
:101ACC0053E02D4B5B6803F00C027B685B689B005A
:101ADC009A42EBD1274B1B6803F007033A689A42F2
:101AEC0010D2244B1B6823F0070222493B68134396
:101AFC000B60204B1B6803F007033A689A4201D035
:101B0C00012332E07B681B6803F00403002B08D030
:101B1C00194B5B6823F4E0627B68DB68164913435E
:101B2C004B607B681B6803F00803002B09D0124B39
:101B3C005B6823F460527B681B69DB000E4913431E
:101B4C004B6000F021F802460B4B5B681B0903F05D
:101B5C000F030A49CB5C22FA03F3094A1360094BC1
:101B6C001B681846FFF7A8F9002318461037BD4626
:101B7C0080BD00BF0020024000100240942C0008E1
:101B8C00800000208400002090B48AB000AF294B64
:101B9C003C1D0FCB84E80F0040F201233B80002357
:101BAC00FB610023BB6100237B6200237B6100236C
:101BBC003B62214B5B68FB61FB6903F00C03042B5C
:101BCC0002D0082B03D02BE01C4B3B622BE0FB69B3
:101BDC009B0C03F00F0328333B4413F8243C7B612C
:101BEC00FB6903F48033002B12D0134B5B685B0C46
:101BFC0003F0010328333B4413F8283CBB617B6999
:101C0C000E4A03FB02F2BB69B2FBF3F37B6204E006
:101C1C007B690B4A02FB03F37B627B6A3B6202E04B
:101C2C00064B3B6200BF3B6A18462837BD4690BC4A
:101C3C00704700BF642C00080010024000127A00AC
:101C4C0000093D0080B400AF024B1B681846BD462E
:101C5C0080BC70478000002080B500AFFFF7F2FF1A
:101C6C000246054B5B68DB0A03F007030349CB5CB8
:101C7C0022FA03F3184680BD00100240A42C000881
:101C8C0080B485B000AF78600A4B1B680A4AA2FB8F
:101C9C0003235B0A7A6802FB03F3FB6000BFFB685B
:101CAC005A1EFA60002BF9D100BF00BF1437BD4695
:101CBC0080BC704780000020D34D621080B586B088
:101CCC0000AF786000233B610023FB607B681B68DE
:101CDC0003F00103002B7DD00023FB754F4BDB6918
:101CEC0003F08053002B0DD14C4BDB694B4A43F076
:101CFC008053D361494BDB6903F08053BB60BB68F5
:101D0C000123FB75464B1B6803F48073002B18D121
:101D1C00434B1B68424A43F480731360FFF70EF980
:101D2C00386108E0FFF70AF902463B69D31A642BC5
:101D3C0001D903236DE03A4B1B6803F48073002B2D
:101D4C00F0D0364B1B6A03F44073FB60FB68002B2E
:101D5C002ED07B685B6803F44073FA689A4227D0F4
:101D6C002E4B1B6A23F44073FB602E4B01221A602E
:101D7C002C4B00221A60294AFB681362FB6803F0A3
:101D8C000103002B14D0FFF7D9F838610AE0FFF7F4
:101D9C00D5F802463B69D31A41F28832934201D9F5
:101DAC00032336E01D4B1B6A03F00203002BEED01D
:101DBC001A4B1B6A23F440727B685B681749134308
:101DCC000B62FB7D012B05D1144BDB69134A23F00D
:101DDC008053D3617B681B6803F00203002B08D08F
:101DEC000E4B5B6823F440427B689B680B491343A2
:101DFC004B607B681B6803F01003002B08D0074B6B
:101E0C005B6823F480027B68DB68044913434B60F6
:101E1C00002318461837BD4680BD00BF0010024095
:101E2C00007000404004424290B58DB000AF786025
:101E3C00584B07F10C040FCB84E80F0040F2012340
:101E4C003B8100237B620023FB6200233B62002367
:101E5C00FB610023BB627B68102B0AD07B68102BC4
:101E6C0000F28E807B68012B49D07B68022B79D0E5
:101E7C0086E0494B5B68FB61474B1B6803F0807342
:101E8C00002B7FD0FB699B0C03F00F0330333B44DA
:101E9C0013F8243C3B62FB6903F48033002B17D00E
:101EAC003D4B5B685B0C03F0010330333B4413F890
:101EBC00283C7B62FB6903F48033002B0DD0374A3E
:101ECC007B6AB2FBF3F23B6A02FB03F3FB6204E0B6
:101EDC003B6A334A02FB03F3FB622F4B5B6803F450
:101EEC008003B3F5800F02D1FB6ABB624AE0FB6A48
:101EFC005B002C4AA2FB03235B08BB6242E0264B2F
:101F0C001B6AFB61FB6903F44073B3F5807F08D156
:101F1C00FB6903F00203002B03D04FF40043BB62B8
:101F2C001FE0FB6903F44073B3F5007F09D11A4B32
:101F3C005B6A03F00203002B03D049F64043BB62FB
:101F4C000FE0FB6903F44073B3F5407F1CD1124BD7
:101F5C001B6803F40033002B16D04FF22443BB62F2
:101F6C0012E011E0FFF778FE02460B4B5B689B0B0F
:101F7C0003F0030301335B00B2FBF3F3BB6204E039
:101F8C0000BF02E000BF00E000BFBB6A1846343758
:101F9C00BD4690BD742C00080010024000127A005F
:101FAC0000093D00ABAAAAAA80B584B000AF786046
:101FBC000023FB607B68002B01D1012384E07B684C
:101FCC005B7CDBB2002B05D17B6800221A7478682D
:101FDC00FEF7B2FE7B6802225A74786800F039FB77
:101FEC000346002B04D07B6804225A7401236BE057
:101FFC00786800F0F2FB0346002B04D07B680422C7
:10200C005A74012360E07B681B685A687B681B6804
:10201C0022F007025A607B689B68002B05D02C4B82
:10202C001B6B2B4A23F001031363294BDB6A23F44C
:10203C0060727B689B6826491343CB627B685B6844
:10204C00B3F1FF3F03D07B685B68FB600EE00120BF
:10205C00FFF7EAFEF860FB68002B04D17B680422D2
:10206C005A74012330E0FB68013BFB607B681B6802
:10207C009B6823F00F01FB681A0C7B681B680A43F2
:10208C009A607B681B68DB681B0C1B04FA6891B2B6
:10209C007A6812680B43D360786800F0C6FB03467D
:1020AC00002B04D07B6804225A7401230CE07B685B
:1020BC000022DA737B6801225A737B6801229A73BF
:1020CC007B6801225A74002318461037BD4680BD28
:1020DC00006C004090B587B000AFF860B9607A60D2
:1020EC0000237B6100233B61FB68002B02D0BB68A3
:1020FC00002B01D1012380E0FB681B7C012B01D15B
:10210C0002237AE0FB6801221A74FB6802225A74DB
:10211C007B68002B13D1BB681B781A464FF46163A4
:10212C0003FB02F2BB685B7819460B461B015B1A7A
:10213C009B001344BA68927813447B611EE0BB6821
:10214C001B78184600F0B6FB03461A464FF4616341
:10215C0003FB02F4BB685B78184600F0ABFB03464C
:10216C001A4613461B019B1A9B001C44BB689B78A8
:10217C00184600F09FFB034623447B617969F8689D
:10218C0000F0C4FA0346002B07D0FB6804225A74F3
:10219C00FB6800221A7401232FE0FB681B685A6845
:1021AC00FB681B6822F005025A60F86800F0D5FA4B
:1021BC0038613B69B3F1FF3F18D03A697B699A42A9
:1021CC0014D23B6903F5A83303F5C0733B6139693D
:1021DC00F86800F0DBFA0346002B07D0FB680422FA
:1021EC005A74FB6800221A74012306E0FB68012272
:1021FC005A74FB6800221A74002318461C37BD461B
:10220C0090BD000080B588B000AFF860B9607A600E
:10221C000023BB610023FB6100237B6100233B6136
:10222C00FB68002B02D0BB68002B01D10123B5E069
:10223C00FB681B685B6803F00403002B01D00123CF
:10224C00ACE0F86800F032FAB861BB69554AA2FB01
:10225C000323DB0A3B61BA69524BA3FB0213DB0A73
:10226C004FF4616101FB03F3D31A4F4AA2FB032322
:10227C005B09DAB2BB685A70BB694A4AA2FB03120B
:10228C00D20A4FF4616101FB02F29A1A464BA3FB8E
:10229C00021359090B461B015B1A9B00D11ACAB2D7
:1022AC00BB689A703B69172B55D93B693F4AA2FB17
:1022BC0003231B097B6139693C4BA3FB01231A09DE
:1022CC0013465B001344DB00CA1AD2B2BB681A7007
:1022DC00F86800F042FAF861FB69B3F1FF3F08D0EF
:1022EC00FA69BB699A4204D9FA69BB69D31AFB61D2
:1022FC0002E04FF0FF33FB617B692D4A02FB03F3D5
:10230C00BA69D31ABB61B969F86800F0FFF90346E2
:10231C00002B01D0012341E0FB69B3F1FF3F0CD04E
:10232C00FA69BB691344FB61F969F86800F02EFA8D
:10233C000346002B0AD0012330E0F969F86800F05D
:10234C0025FA0346002B01D0012327E07969F868B0
:10235C0000F0CDFA03E03B69DAB2BB681A707B6817
:10236C00002B1AD0BB681B78184600F086FA03467F
:10237C001A46BB681A70BB685B78184600F07DFA89
:10238C0003461A46BB685A70BB689B78184600F027
:10239C0074FA03461A46BB689A7000231846203715
:1023AC00BD4680BDC5B3A29189888888ABAAAAAA6C
:1023BC008051010080B588B000AFF860B9607A60D8
:1023CC000023FB610023BB6100237B61FB68002BB6
:1023DC0002D0BB68002B01D1012397E0FB681B7C6A
:1023EC00012B01D1022391E0FB6801221A74FB68D6
:1023FC0002225A747B68002B0CD1BB68DA78FB681C
:10240C00DA73BB685A78FB685A73BB689A78FB68B6
:10241C009A731AE0BB68DB78184600F04BFA034657
:10242C001A46FB68DA73BB685B78184600F042FA10
:10243C0003461A46FB685A73BB689B78184600F033
:10244C0039FA03461A46FB689A73FB68DB7B18461D
:10245C00FB68597BFB689B7B1A4600F023FB034609
:10246C001A46FB681A73FB681A7BBB681A70F8680B
:10247C0000F01CF9F861FB69264AA2FB0323DB0A76
:10248C007B617B69182B3AD97B69234AA2FB032316
:10249C001B09224A02FB03F3FA69D31AFB61F9699F
:1024AC00F86800F033F90346002B07D0FB680422D0
:1024BC005A74FB6800221A74012327E0F86800F0B4
:1024CC004CF9B861BB69B3F1FF3F18D0BA69FB692D
:1024DC009A4214D2BB6903F5A83303F5C073BB61F0
:1024EC00B969F86800F052F90346002B07D0FB6875
:1024FC0004225A74FB6800221A74012306E0FB685C
:10250C0001225A74FB6800221A74002318462037E3
:10251C00BD4680BDC5B3A291ABAAAAAA8051010049
:10252C0090B589B000AFF860B9607A600023FB61A8
:10253C0007F1140300210A461A800A469A70FB68B8
:10254C00002B02D0BB68002B01D101237DE0FB687E
:10255C001B7C012B01D1022377E0FB6801221A744A
:10256C00FB6802225A7407F1140300221946F8681A
:10257C00FFF748FE0346002B01D0012365E03B7DAD
:10258C001A464FF4616303FB02F27B7D19460B463E
:10259C001B015B1A9B001344BA7D1344BB617B681F
:1025AC00002B13D1BB681B781A464FF4616303FBF5
:1025BC0002F2BB685B7819460B461B015B1A9B0049
:1025CC001344BA6892781344FB611EE0BB681B7815
:1025DC00184600F06FF903461A464FF4616303FB8B
:1025EC0002F4BB685B78184600F064F903461A469F
:1025FC0013461B019B1A9B001C44BB689B78184616
:10260C0000F058F903462344FB61FA69BB699A420E
:10261C0005D2FB6903F5A83303F5C073FB61F969B7
:10262C00F86800F0B3F80346002B07D0FB680422CF
:10263C005A74FB6800221A74012306E0FB6801221D
:10264C005A74FB6800221A74002318462437BD46BE
:10265C0090BD80B584B000AF78600023FB607B68D0
:10266C00002B01D101231DE07B681B685A687B6835
:10267C001B6822F008025A60FEF760FCF86009E063
:10268C00FEF75CFC0246FB68D31AB3F57A7F01D9DE
:10269C00032307E07B681B685B6803F00803002BCF
:1026AC00EED0002318461037BD4680BD80B487B0ED
:1026BC0000AF786000237B8200233B820023FB81E8
:1026CC0000237B617B681B689B697B827B681B6832
:1026DC00DB69FB817B681B689B693B827A8A3B8A3E
:1026EC009A4208D03B8A1A047B681B68DB699BB250
:1026FC0013437B6104E07B8A1A04FB8913437B61DF
:10270C007B6918461C37BD4680BC704780B584B0C9
:10271C0000AF786039600023FB73786800F05DF8D7
:10272C000346002B02D00123FB7311E07B681B686E
:10273C003A68120C9A617B681B683A6892B2DA614B
:10274C00786800F072F80346002B01D00123FB736C
:10275C00FB7B18461037BD4680BD80B485B000AFFA
:10276C0078600023FB810023BB817B681B681B6A9C
:10277C00FB817B681B685B6ABB81FB891A04BB8984
:10278C00134318461437BD4680BC704780B584B0DF
:10279C0000AF786039600023FB73786800F01DF897
:1027AC000346002B02D00123FB7311E07B681B68EE
:1027BC003A68120C1A627B681B683A6892B25A62C9
:1027CC00786800F032F80346002B01D00123FB732C
:1027DC00FB7B18461037BD4680BD80B584B000AF7A
:1027EC0078600023FB60FEF7A9FBF86009E0FEF7B8
:1027FC00A5FB0246FB68D31AB3F57A7F01D90323F4
:10280C000FE07B681B685B6803F02003002BEED0A5
:10281C007B681B685A687B681B6842F010025A6020
:10282C00002318461037BD4680BD80B584B000AF7C
:10283C0078600023FB607B681B685A687B681B68A8
:10284C0022F010025A60FEF779FBF86009E0FEF7FF
:10285C0075FB0246FB68D31AB3F57A7F01D90323C3
:10286C0007E07B681B685B6803F02003002BEED04D
:10287C00002318461037BD4680BD80B485B000AF2C
:10288C000346FB710023FB6005E0FB680133FB6032
:10289C00FB790A3BFB71FB79092BF6D8FB68DBB2A1
:1028AC001B01DAB2FB791343DBB218461437BD4671
:1028BC0080BC704780B485B000AF0346FB71002329
:1028CC00FB60FB791B09DBB21A4613469B001344D1
:1028DC005B00FB60FB7903F00F03DAB2FB68DBB241
:1028EC001344DBB218461437BD4680BC704780B524
:1028FC0086B000AF7860396000237B6100233B61B8
:10290C000023FB600023BB607B68DB7B7B617B6807
:10291C005B7B3B617B689B7BFB600023BB606FE058
:10292C003B69012B11D03B69032B0ED03B69052B66
:10293C000BD03B69072B08D03B69082B05D03B69B2
:10294C000A2B02D03B690C2B17D1FB681E2B03D82A
:10295C00FB680133FB6050E03B690C2B05D03B69F5
:10296C0001333B610123FB6047E001233B61012301
:10297C00FB607B6901337B613FE03B69042B08D032
:10298C003B69062B05D03B69092B02D03B690B2B0D
:10299C000CD1FB681D2B03D8FB680133FB602CE0CA
:1029AC003B6901333B610123FB6026E03B69022B51
:1029BC0023D1FB681B2B03D8FB680133FB601CE0A5
:1029CC00FB681C2B11D17B699BB2184600F038F8C0
:1029DC000346002B03D0FB680133FB600DE03B6921
:1029EC0001333B610123FB6007E0FB681D2B04D125
:1029FC003B6901333B610123FB60BB680133BB6066
:102A0C00BA683B689A428BD37B69DAB27B68DA731B
:102A1C003B69DAB27B685A73FB68DAB27B689A73EB
:102A2C003B69DBB2FA68D2B21946786900F03AF821
:102A3C0003461A467B681A7300BF1837BD4680BD23
:102A4C0080B483B000AF0346FB80FB8803F0030324
:102A5C009BB2002B01D000231DE0FB88104AA2FB87
:102A6C0003125209642101FB02F29B1A9BB2002B48
:102A7C0001D001230FE0FB88094AA2FB0312D20903
:102A8C004FF4C87101FB02F29B1A9BB2002B01D1CF
:102A9C00012300E0002318460C37BD4680BC70476C
:102AAC001F85EB5180B485B000AF78600B46FB708E
:102ABC001346BB700023BB600023FB607B6803F5EF
:102ACC00FA63BB60FB78022B2DD8FA7813465B00B7
:102ADC001344DB009B1A2C4AA2FB03235A08BB7835
:102AEC001A44BB681A44BB68013B9B081A44BB6878
:102AFC00013B2649A1FB03135B09D21ABB68013BBE
:102B0C002249A1FB0313DB0913441A1D204BA3FB21
:102B1C000213D11A49080B4499080B46DB005B1AC7
:102B2C00D31AFB6029E0FA7813465B001344DB00F0
:102B3C009B1A154AA2FB03235A08BB781A44BB689C
:102B4C001A44BB689B081A44BB681049A1FB0313C9
:102B5C005B09D21ABB680D49A1FB0313DB091344B3
:102B6C009A1C0B4BA3FB0213D11A49080B4499086E
:102B7C000B46DB005B1AD31AFB60FB68DBB2184612
:102B8C001437BD4680BC7047398EE3381F85EB5136
:102B9C002549922480B487B000AFF860B9607A60A0
:102BAC0000237B61074B7B61BB689B007A691344F4
:102BBC007B617B697A6892B21A6000BF1C37BD4694
:102BCC0080BC7047006C004003460244934200D125
:102BDC00704703F8011BF9E770B500260C4D0D4C3E
:102BEC00641BA410A64209D100F01AF800260A4D65
:102BFC000A4C641BA410A64205D170BD55F8043BC9
:102C0C0098470136EEE755F8043B98470136F2E752
:102C1C00AC2C0008AC2C0008AC2C0008B02C000824
:102C2C00F8B500BFF8BC08BC9E467047F8B500BFAD
:082C3C00F8BC08BC9E4670477D
:102C4400496E7469616C2054696D657220313A0073
:102C5400496E7469616C2054696D657220323A0062
:102C640002030405060708090A0B0C0D0E0F1010C9
:102C740002030405060708090A0B0C0D0E0F1010B9
:102C84003132334134353642373839432A302344DC
:102C94000000000000000000010203040607080908
:082CA40000000000010203041E
:042CAC0031010008EA
:042CB0000D0100080A
:102CB4000008014009000000000801400A0000006B
:102CC400000801400B000000000801400C00000057
:102CD400000C014003000000000C0140040000004F
:102CE400000C014005000000000C0140060000003B
:102CF4000008014004000000000801400500000035
:102D04000008014006000000000801400000000027
:102D1400000801400100000000080140020000001A
:102D24000008014003000000FF00000008000C0040
:0C2D34000024F40010000000010000006A
:0400000508000E4D94
:00000001FF
